:100000000C9456030C9482280C945B280C947E0369
:100010000C947E030C947E030C947E030C9437277F
:100020000C947E030C947E030C947E030C947E034C
:100030000C947E030C94A9280C947E030C947E03EC
:100040000C9411280C947E030C94DF270C94B92790
:100050000C947E030C947E030C947E030C947E031C
:100060000C947E030C947E03455343206B65793AD0
:10007000205175697473204350552070726F6772F8
:10008000616D0068656C70202F203F3A2053686FC7
:10009000777320746869732068656C70207363726D
:1000A00065656E006265747765656E2041444452F3
:1000B00031202620414444523220746F2041444470
:1000C0005233206F6E006D6F76652041444452318B
:1000D0002041444452322041444452333A204D6F2F
:1000E0007665732062797465730072756E3A204587
:1000F0007865637574657320636F646520696E202D
:100100006D656D6F72790066726F6D204144445267
:100110003120746F20414444523220746F2046498C
:100120004C4500736176652041444452312041447E
:100130004452322046494C453A205361766573203B
:100140006D656D6F7279006C6F61642046494C4536
:1001500020414444523A204C6F6164732046494C1C
:100160004520617420414444520064656C20464936
:100170004C453A2044656C657465732046494C458E
:10018000006469723A204C697374732066696C6507
:1001900073206F6E20755344206361726400726532
:1001A0007365743A205265736574732074686520B2
:1001B00073797374656D00736C6F773A2053776948
:1001C000746368657320746F20344D487A206D6FB6
:1001D000646500666173743A205377697463686577
:1001E0007320746F20384D487A206D6F6465007AF3
:1001F00038303A20537769746368657320746F20D0
:100200005A383020435055206D6F646500363530C4
:10021000323A20537769746368657320746F2036AF
:1002200035303220435055206D6F6465007465731E
:10023000746D656D3A2052656164732F77726974CD
:10024000657320746F206D656D6F726965730063EF
:100250006C733A20436C6561727320746865207317
:10026000637265656E006C69737420414444523A50
:10027000204C69737473206D656D6F72792066729E
:100280006F6D204144445200307841444452204232
:100290005954453A20577269746573204259544540
:1002A0002061742041444452002028416C6C206E2F
:1002B000756D62657273206D757374206265206858
:1002C000657861646563696D616C29002020202078
:1002D00020202020415641494C41424C4520434F6B
:1002E0004D4D414E44533A0054686520427974653F
:1002F0002041747469632773204345524245525527
:100300005320323038302028746D29003F00686552
:100310006C70006D6F766500736176650072756E46
:10032000006C6F61640064656C0064697200736CDA
:100330006F770066617374007265736574007A3854
:1003400030003635303200746573746D656D00634E
:100350006C73006C697374004F4B002020202020C8
:100360000034204D487A0038204D487A0036353028
:10037000322C2000205A38302C2000202020202031
:1003800020434552424552555320323038303A20AE
:10039000004665656C2074686520706F7765722013
:1003A0006F662044757463682064657369676E21A5
:1003B00021004F6F70732C20696E76616C69642028
:1003C000616464726573732072616E6765210054A5
:1003D00068652066696C6520616C7265616479206E
:1003E000657869737473210050726573732061209E
:1003F0006B657920746F207363726F6C6C2C204571
:10040000534320746F2073746F70004F6F70732CA0
:10041000206D697373696E6720616E206F706572FD
:10042000616E642121004F6F70732C20636F756CB7
:10043000646E2774206F70656E207468652066692D
:100440006C65004F6F70732C2066696C6520646F5B
:1004500065736E2774207365656D20746F206578F1
:10046000697374004461726E2C20756E7265636FDF
:10047000676E697A656420636F6D6D616E640041BB
:100480006C72696768742C20646F6E652100486522
:10049000726520776520676F212048616E67206F45
:1004A0006E2E2E2E007C3C3E5E2B3D3F2F5B5D3B37
:1004B0002C2A225C000000000023002600290000F6
:1004C0000000080002010000030407000000000013
:1004D00000000000000000240027002A00000000A7
:1004E00000000000010000000000096000000000A2
:1004F000000071310000007A736177320000637888
:1005000064653433000020766674723500006E62D4
:10051000686779360000006D6A75373800002C6B0B
:10052000696F303900002E2F6C3B702D00000027C2
:10053000005B3D000000000D5D005C00000000005D
:100540000000007F000031003437000000302E3200
:100550003536381B00002B332D2A390000000000EF
:10056000000000000000000000000000010000008A
:100570000000097E00000000000051210000005A28
:10058000534157400000435844452423000020565F
:100590004654522500004E424847595E0000004D27
:1005A0004A55262A00003C4B494F292800003E3F6F
:1005B0004C3A505F00000022007B2B000000000D31
:1005C0007D007C00000000000000007F0000310082
:1005D0003437000000302E323536381B00002B3304
:1005E0002D2A39000000000000000000000000007B
:1005F00000000000000000000000000000000000FB
:1006000000000000000000000000000000000000EA
:1006100000000000000000000000000000000000DA
:1006200000000000000000000000000000000000CA
:1006300000000000000000000000000000000000BA
:1006400000000000000000000000000000000000AA
:10065000000000000000000000000000000000009A
:10066000000000000000000000000000000000008A
:10067000000000000000000102040810204080017A
:1006800002040810200102040810200000000025C8
:100690000028002B000404040404040404020202E1
:1006A00002020203030303030302D02811241FBE26
:1006B000CFEFD8E0DEBFCDBF25E0A0EAB1E001C0BA
:1006C0001D92AE33B207E1F711E0A0E0B1E0E2E342
:1006D000F4E602C005900D92A03AB107D9F713E0F5
:1006E000C6E5D3E004C02197FE010E94E72FC5357F
:1006F000D107C9F70E9418290C9417320C940000F6
:10070000DC0114962D913C911597232B41F0ED912E
:10071000FC9181E09081992319F080E0089581E0B7
:1007200008950895AF92BF92CF92DF92EF92FF9219
:100730000F931F93CF93DF936C017B018B01040F09
:10074000151FEB015E01AE18BF08C017D10759F0A5
:100750006991D601ED91FC910190F081E02DC601E7
:100760000995892B79F7C501DF91CF911F910F91E1
:10077000FF90EF90DF90CF90BF90AF900895FC0175
:10078000538D448D252F30E0842F90E0821B930BF6
:10079000541710F0CF96089501970895FC01918D9C
:1007A000828D981761F0A28DAE0FBF2FB11D5D969F
:1007B0008C91928D9F5F9F73928F90E008958FEF41
:1007C0009FEF0895FC01918D828D981731F0828DF5
:1007D000E80FF11D858D90E008958FEF9FEF08954C
:1007E000FC01918D228D892F90E0805C9F4F821BB0
:1007F00091098F739927089580E594E00E94F00392
:1008000021E0892B09F420E0822F089580E090E018
:10081000892B29F00E94FC0381110C94000008959B
:10082000FC01A48DA80FB92FB11DA35ABF4F2C9165
:10083000848D90E001968F739927848FA689B7895C
:100840002C93A089B1898C91837080648C93938D53
:10085000848D981306C00288F389E02D80818F7DF6
:1008600080830895EF92FF920F931F93CF93DF93AE
:10087000EC0181E0888F9B8D8C8D98131AC0E889DC
:10088000F989808185FF15C09FB7F894EE89FF89AB
:100890006083E889F98980818370806480839FBF49
:1008A00081E090E0DF91CF911F910F91FF90EF9049
:1008B0000895F62E0B8D10E00F5F1F4F0F73112759
:1008C000E02E8C8D8E110CC00FB607FCFACFE88994
:1008D000F989808185FFF5CFCE010E941004F1CF08
:1008E000EB8DEC0FFD2FF11DE35AFF4FF0829FB708
:1008F000F8940B8FEA89FB8980818062CFCFCF93F8
:10090000DF93EC01888D8823B9F0AA89BB89E88937
:10091000F9898C9185FD03C0808186FD0DC00FB6DD
:1009200007FCF7CF8C9185FFF2CF808185FFEDCF5B
:10093000CE010E941004E9CFDF91CF91089583305A
:1009400081F028F4813099F08230A9F00895873041
:10095000A9F08830C9F08430B1F4809180008F7D97
:1009600003C0809180008F7780938000089584B5C4
:100970008F7784BD089584B58F7DFBCF8091B000C3
:100980008F778093B00008958091B0008F7DF9CF6C
:10099000CF93DF93282F30E0F901E154FB4F84918E
:1009A000F901E958F94FD491F901EB56F94FC49187
:1009B000CC23A1F081110E949F04EC2FF0E0EE0FF8
:1009C000FF1FEB54FB4FA591B491EC91ED2381E017
:1009D00090E009F480E0DF91CF91089580E090E00D
:1009E000FACF1F93CF93DF93282F30E0F901E15422
:1009F000FB4F8491F901E958F94FD491F901EB5675
:100A0000F94FC491CC23A9F0162F81110E949F04A5
:100A1000EC2FF0E0EE0FFF1FE557F94FA591B491D1
:100A20008FB7F894EC91111108C0D095DE23DC93B8
:100A30008FBFDF91CF911F910895DE2BF8CFCF9319
:100A4000DF9390E0FC01E958F94F24918B56994FC0
:100A5000FC0184918823C9F090E0880F991FFC0164
:100A6000ED52FB4FA591B491FC01E557F94FC591AB
:100A7000D49161110DC09FB7F8948C912095822379
:100A80008C938881282328839FBFDF91CF9108957D
:100A9000623051F49FB7F8943C91822F8095832364
:100AA0008C93E8812E2BEFCF8FB7F894EC912E2BFF
:100AB0002C938FBFEACF4F925F926F927F928F926B
:100AC0009F92AF92BF92CF92DF92EF92FF920F93DD
:100AD0001F93CF93DF9300D000D01F92CDB7DEB726
:100AE0008C0149835A836B837C8380910B01843012
:100AF000C9F08F3F09F496C00F900F900F900F90A0
:100B00000F90DF91CF911F910F91FF90EF90DF90A9
:100B1000CF90BF90AF909F908F907F906F905F909D
:100B20004F900895E9EAF6E084918D8387FDE4CF44
:100B300061E084E00E941F058D81882321F09D8162
:100B4000923009F023C14801B12CA12C60E072E180
:100B50008AE790E0A50198010E94C82F29013A0177
:100B600068E478EE81E090E0A50198010E94C82F2A
:100B700069017A0181E0C81AD108E108F1089D8174
:100B8000992309F469C1923009F070C18FEFC8163A
:100B9000D104E104F10409F00CF46AC164E274EFD9
:100BA00080E090E0A50198010E94C82F69017A01B8
:100BB00091E0C91AD108E108F10885E09FEFC91654
:100BC000D104E104F10439F130F162E17AE780E027
:100BD00090E0A50194010E94C82F69017A0181E08B
:100BE000C81AD108E108F10886E09FEFC916D104C0
:100BF000E104F10481F07CF0730162012AE0F594D4
:100C0000E794D794C7942A95D1F781E0C81AD10800
:100C1000E108F10887E09091B100987F892B8093DB
:100C2000B1008DC084E080930B01E9EAF6E0949175
:100C30009D839F3F09F460CF913029F158F09230A5
:100C400009F43FC09D8197FD57CF61E084E00E9489
:100C50001F0575CF14BC15BC84B5826084BD85B5F5
:100C6000816085BDE9E9F6E0E491F0E0EE0FFF1F59
:100C7000E557F94F85919491EBE7F6E0E491E09325
:100C800043021D8255CF1092800010928100809106
:100C900081008860809381008091810081608093D1
:100CA0008100E9E9F6E0E491F0E0EE0FFF1FE5577F
:100CB000F94F85919491EBE7F6E0E491E0934202DD
:100CC00037CF1092B0001092B1008091B0008260D6
:100CD0008093B0008091B10081608093B100E9E918
:100CE000F6E0E491F0E0EE0FFF1FE557F94F859134
:100CF00094919093410280934002EBE7F6E0E491F7
:100D0000E0933F0215CF62E17AE780E090E0A50131
:100D100094010E94C82F69017A0181E0C81AD108A4
:100D2000E108F1089FEFC916D104E104F10411F0C4
:100D30000CF082C094E085B5887F892B85BDD801F1
:100D4000AA0FBB1F29813A814B815C810E94632FCE
:100D500028EE33E040E050E00E94412F8D81813049
:100D600009F448C0823009F457C08111C5CEC7BC10
:100D700020934C0230934D0240934E0250934F0209
:100D800080916E00826080936E00B6CEB12CA12C53
:100D900060E072E18AE790E0A50198010E94C82F07
:100DA00069017A0181E0C81AD108E108F108C1148B
:100DB000D10491E0E906F10464F491E08D81813081
:100DC00009F0BDCF80918100887F892B80938100BD
:100DD000B6CF68E478EE81E090E0A50198010E942A
:100DE000C82F69017A0181E0C81AD108E108F10829
:100DF00093E0E4CFD0928900C0928800209348020B
:100E00003093490240934A0250934B0280916F0005
:100E1000826080936F0070CEC092B3002093440232
:100E200030934502409346025093470280917000F0
:100E300082608093700060CE730162019AE0F59445
:100E4000E794D794C7949A95D1F791E0C91AD1083D
:100E5000E108F10895E06FCF9FEFC916D104E104D6
:100E6000F10411F00CF04FCF93E065CF84E0A6CEF3
:100E700084E0D1CE3FB7F8948091E6019091E701EC
:100E8000A091E801B091E90126B5A89B05C02F3FCC
:100E900019F00196A11DB11D3FBFBA2FA92F982FA0
:100EA0008827BC01CD01620F711D811D911D42E09B
:100EB000660F771F881F991F4A95D1F708958F9263
:100EC0009F92AF92BF92CF92DF92EF92FF924B012F
:100ED0005C010E943A076B017C010E943A076C1981
:100EE0007D098E099F09683E734081059105A8F32D
:100EF00021E0821A9108A108B10888EEC80E83E0AB
:100F0000D81EE11CF11C81149104A104B10429F73D
:100F1000FF90EF90DF90CF90BF90AF909F908F9019
:100F200008952FB7F8946091E2017091E3018091E8
:100F3000E4019091E5012FBF089508950F931F9349
:100F4000CF932091EC013091ED01B90168577F4FAB
:100F5000A9014E5E5E4F9091DC01D901A05FBE4FAA
:100F60008091EA01E091EB018E1307C09093DC01C0
:100F700080E0CF911F910F9108958F5F8D3208F01F
:100F800080E0E82FF0E0E155FE4FE0818093EA0138
:100F9000EE2361F3E03F11F49160E2CFE03E11F403
:100FA0009260DECF90FF0FC0E23119F49B7F9C7FEF
:100FB000D7CFE93511F4977FFACFE131C1F791FF2F
:100FC000F6CF9F7EF4CFE23111F49460C9CFE935BA
:100FD00011F49860C5CFE13111F491FD9061C92FF2
:100FE000CC7F91FF10C0EA54E43310F09C2FB8CFAF
:100FF000F0E0EE5EFE4F80819C2F882309F4B0CF95
:10100000C093DC01B6CF94FF0CC00D911C911197D9
:10101000012B39F0E83850F7E40FF52FF11D8491DA
:10102000EBCF9C7031F0E83808F7E60FF72FF11D91
:10103000F6CFE838D8F6E20FF32FF11DF0CF80910C
:10104000DE01882321F01092DE0190E00895809166
:10105000DD01882379F01092DD0187FF0EC0982F03
:101060009F7390689093DE01829586958695837034
:10107000806CEBCF0E949E07F0CF8111E6CF8FEFFF
:101080009FEF08958091DD0181110EC08091DE01F6
:1010900081110AC00E949E07982F8093DD0181E094
:1010A000911103C080E0089581E00895CF92DF920E
:1010B000EF92FF920F931F93CF93DF938091EE01F6
:1010C0000E94C804EC010E9491070091AB011091AD
:1010D000AC012091AD013091AE016B017C01C01AD1
:1010E000D10AE20AF30A970186010B3F1105210597
:1010F000310520F01092AA011092A9016093AB0172
:101100007093AC018093AD019093AE018091AA01E0
:101110009FEF980F983050F4DD2701C0CC0F9A95BF
:10112000EAF79091A901C92BC093A9018F5F809321
:10113000AA018B30B9F48091EB018F5F8D3208F0FA
:1011400080E09091EA01981749F0E82FF0E0909143
:10115000A901E155FE4F90838093EB011092AA0103
:101160001092A901DF91CF911F910F91FF90EF9005
:10117000DF90CF9008958FB7F8948091A3018FBF2F
:10118000089561E0FC0184810E94F1048091A20134
:1011900081111092A20108958EBD00000DB407FECA
:1011A000FDCF8EB508958FEF0C94CC080F931F934D
:1011B000CF93DF93EC010E9491078B010E94D3082B
:1011C0008F3F69F00E949107601B710B6C177D07C0
:1011D000A8F380E0DF91CF911F910F91089581E0F6
:1011E000F9CF8CBD9DBD0895CF93DF93EC01809125
:1011F000A201811109C081E08093A2018091ED04D8
:101200009091EE040E94F10860E08C81DF91CF9113
:101210000C94F1048F929F92AF92BF92FF920F9322
:101220001F93CF93DF93EC01F62E49015A018E8173
:10123000882389F08F8198859C012F5F3F4F3887E5
:101240002F838230924018F40E94D308F3CFCE014E
:101250000E94C1081E82CE010E94F4088CE291E037
:101260000E94D6088F2D80640E94CC0808E110E00F
:10127000D501C401002E04C0B695A7959795879512
:101280000A94D2F70E94CC0808501109083F8FEF4A
:10129000180771F785E9FF2021F028E087E8F212AE
:1012A0008FEF0E94CC0810E00E94D3088A8787FF46
:1012B00004C01F3F11F01F5FF7CFDF91CF911F9147
:1012C0000F91FF90BF90AF909F908F900895AF9235
:1012D000BF92CF92DF92EF92FF920F931F93CF9323
:1012E000DF93EC016901C801820F931F81309240A6
:1012F00050F58E81882379F088819981AA81BB81FC
:1013000084179507A607B70731F48F819885C8160B
:10131000D90608F042C0488359836A837B838B8552
:10132000833039F089E0440F551F661F771F8A9577
:10133000D1F79A01AB0161E1CE010E940A0988232D
:1013400089F083E08D83CE010E94C10880E0DF91A7
:10135000CF911F910F91FF90EF90DF90CF90BF90B2
:10136000AF9008950E9491075B010E94D3088A877D
:101370008F3F69F40E9491076A197B096D327140B1
:10138000A0F38FE08D83CE010E94C108DCCF8E3F99
:1013900089F418861F8281E08E838F8198858C1551
:1013A0009D0550F40E94D3088F81988501969887F7
:1013B0008F83F3CF8DE0E6CF6701E00EF11E0E9430
:1013C000D308F60181936F01EE15FF05C1F78F81F8
:1013D0009885080F191F18870F838985882319F0AE
:1013E00001151240A0F08E81882389F08F819885A5
:1013F0009C012F5F3F4F38872F838230924018F433
:101400000E94D308F3CFCE010E94C1081E8281E062
:101410009ECFCF92DF92EF92FF920F93CF93DF9305
:10142000EC01690182E1411551056105710599F0F1
:101430008B85833039F089E0440F551F661F771F75
:101440008A95D1F79A01AB0168E1CE010E940A09A1
:10145000882319F084E08D832DC08EEF0E94CC0884
:1014600076018EEFD81AF70181917F010E94CC0896
:10147000EC14FD04C1F78FEF0E94CC088FEF0E949F
:10148000CC080E94D3088A878F71853071F40111CE
:1014900016C0CE010E94C10881E0DF91CF910F916B
:1014A000FF90EF90DF90CF90089581E18D83CE0182
:1014B0000E94C108CE010E94C10880E0EECF88E5FD
:1014C00092E00E94D608811102C085E1C4CF20E0DD
:1014D00030E0A9016DE0CE010E940A09882311F0D5
:1014E00084E1B9CF0E94D3088111FACFD2CF0F93F4
:1014F0004091A5015091A6016091A7017091A801AA
:10150000411551056105710599F0082F20E532E07C
:1015100080913D0290913E020E94090A882349F081
:101520001092A5011092A6011092A7011092A80195
:1015300081E00F9108950F93CF93C82F8091A4015C
:10154000811105C0C1E08C2FCF910F91089540917A
:1015500001015091020160910301709104010C2F6F
:1015600020E532E080913D0290913E020E94090AFE
:10157000811102C0C0E0E7CFCC2321F381E00E94BB
:10158000770A8823B9F31092A401DDCF8F929F923E
:10159000AF92BF92EF92FF920F931F93CF934B01A5
:1015A0005C01C42F8091010190910201A09103017F
:1015B000B091040188159905AA05BB0551F181E098
:1015C0000E949B0A81110BC080E0CF911F910F9167
:1015D000FF90EF90BF90AF909F908F90089580E51F
:1015E000E82E82E0F82E00E012E030E020E0B501C5
:1015F000A40180913D0290913E020E9467098823D8
:1016000019F38092010190920201A0920301B0921D
:1016100004014091A4014C2B4093A40181E0D5CF5B
:10162000CF93DF93EC016E857F858889998941E0AE
:101630000E94C60A882351F08A8920E2829FC00155
:101640001124805B9D4FDF91CF91089590E080E061
:10165000FACF8F929F92AF92BF92CF92DF92EF928A
:10166000FF92CF932FEE34E030933E0220933D0261
:10167000882309F46DC040E060E070E0CB010E9477
:10168000C60A81110BC080E0CF91FF90EF90DF90F0
:10169000CF90BF90AF909F908F90089580910E044F
:1016A0008F7789F780911A0490911B04A0911C04F4
:1016B000B0911D0484369105A105B10520F3C090B9
:1016C0001604D0901704E0901804F0901904C11487
:1016D000D104E104F104B9F240E0C701B6010E946F
:1016E000C60A882381F280915B0290915C02811589
:1016F000924049F6A0916002AA2329F260915E020D
:1017000070915F026115710509F4BDCF20915D02F2
:10171000222309F4B8CFA0930D052093FF0490E095
:1017200080E030E0E1E0F0E0C82FAF01082E02C019
:10173000440F551F0A94E2F72417350769F041E07A
:10174000480F01968930910579F7409308059BCFA2
:10175000C12CD12C7601C0CF809308052091660260
:101760003091670250E040E02115310541F42091AD
:101770007402309175024091760250917702209365
:10178000000530930105409302055093030546017F
:101790005701860E971EA11CB11C80920E059092D7
:1017A0000F05A0921005B0921105E0916102F09131
:1017B0006202F0931405E0931305B0E00E94632FDA
:1017C000DC01CB01880D991DAA1DBB1D8093150559
:1017D00090931605A0931705B093180525E0EE0F1A
:1017E000FF1F2A95E1F7E150FE4FEF2FFF27E69507
:1017F0008E0F9F1FA11DB11D8093090590930A05AF
:10180000A0930B05B0930C05809063029090640246
:10181000B12CA12C8114910441F48090700290901D
:101820007102A0907202B0907302C81AD90AEA0A33
:10183000FB0AC80CD91CEA1CFB1C04C0F694E794F4
:10184000D794C794CA95D2F7C0920405D0920505E3
:10185000E0920605F092070585EFC8168FE0D806DE
:10186000E104F10428F48CE08093120581E00CCFB0
:1018700080E125EFC2162FEFD206E104F104A0F3B8
:1018800080917C0290917D02A0917E02B0917F02B6
:101890008093150590931605A0931705B09318052E
:1018A00080E2E2CF4F925F926F927F928F929F92EF
:1018B000AF92BF92CF92DF92EF92FF920F931F935E
:1018C000CF93DF93EC01423051056105710590F42F
:1018D00080E0DF91CF911F910F91FF90EF90DF900B
:1018E000CF90BF90AF909F908F907F906F905F90C0
:1018F0004F90089589859A85AB85BC850196A11D79
:10190000B11D84179507A607B70710F3CB88DC88AD
:10191000ED88FE888F89803109F042C0BB27A72F50
:10192000962F852F480159012A013B01C80ED91E67
:10193000EA1EFB1E8091010190910201A09103011A
:10194000B0910401C816D906EA06FB0699F58F89FD
:101950008031C1F5B301A201552766277727440FCF
:10196000551F405B5D4FFA01918280828091A401F6
:1019700081608093A4018A89823080F08D819E816C
:10198000AF81B8858C0D9D1DAE1DBF1D8093A50137
:101990009093A601A093A701B093A80181E099CFED
:1019A000DB01CA01E7E0B695A79597958795EA957B
:1019B000D1F7B8CF40E0C701B6010E94C60A811135
:1019C000C6CF86CFB301A2014F7755276627772769
:1019D000440F551F440F551F405B5D4FFA01808235
:1019E0009182A282B382C2CF8F929F92AF92BF9216
:1019F000CF92DF92EF92FF920F931F93CF93DF93DB
:101A0000FC0181859285A385B4850196A11DB11D38
:101A100084179507A607B70770F480E0DF91CF9190
:101A20001F910F91FF90EF90DF90CF90BF90AF90FC
:101A30009F908F90089583889488A588B688878919
:101A4000803189F5BB27A72F962F852FE9016A01E1
:101A50007B018F01BC01CD01680D791D8A1D9B1D85
:101A60008090010190900201A0900301B0900401C8
:101A700086169706A806B90601F5F8018789803110
:101A800011F5DD24EE24FF24F601EE0FFF1FE05BCD
:101A9000FD4F80819181B0E0A0E088839983AA8383
:101AA000BB8381E0BBCFDB01CA01C7E0B695A79538
:101AB00097958795CA95D1F7C9CF40E00E94C60A8D
:101AC0008111DBCFAACFE894C7F8DD24EE24FF24F0
:101AD000F601EE0FFF1FEE0FFF1FE05BFD4F808151
:101AE0009181A281B381BF70D8CF4F925F926F92E4
:101AF0007F92AF92BF92CF92DF92EF92FF920F93BD
:101B00001F93CF93DF9300D000D0CDB7DEB78C0109
:101B100049835A836B837C835901C12CD12C760174
:101B2000412C82E0582E612C712C49815A816B81A5
:101B30007C819E012F5F3F4FC8010E94F40C8823D7
:101B400039F1F8018585A301920104C0220F331FEA
:101B5000441F551F8A95D2F7DA01C901C80ED91E54
:101B6000EA1EFB1E49815A816B817C818789803105
:101B700011F188EF9FEFAFEFBFE0481759076A07F1
:101B80007B0798F2F501C082D182E282F38281E084
:101B90000F900F900F900F90DF91CF911F910F91A9
:101BA000FF90EF90DF90CF90BF90AF907F906F90BD
:101BB0005F904F90089588EF9FEFA0E0B0E0DDCFF9
:101BC000CF93DF93FC012581222321F080E0DF9178
:101BD000CF910895EC0180911205803159F582E092
:101BE0008583178A108E118E128E80911305909125
:101BF0001405B0E0A0E025E0880F991FAA1FBB1FC5
:101C00002A95D1F7838B948BA58BB68B8BEF94E0C1
:101C10009C8F8B8F81E08C831E821F821886198691
:101C20001A861B861C861D861E861F86188A198AA0
:101C30001A8ACDCF803251F683E085834091150515
:101C4000509116056091170570911805478B508FBC
:101C5000618F728F9F012D5E3F4F8BEF94E00E944A
:101C6000750D8111D3CFB2CF8F929F92AF92BF9259
:101C7000CF92DF92EF92FF920F931F93CF93DF9358
:101C8000EC018D8181110EC080E0DF91CF911F9119
:101C90000F91FF90EF90DF90CF90BF90AF909F900B
:101CA0008F9008950B891C892D893E89041715078B
:101CB0002607370748F34A015B01823031F48A86F0
:101CC0009B86AC86BD8681E0E0CF81149104A1049F
:101CD000B10449F41E821F82188619861A861B8653
:101CE0001C861D86F0CF0A851B852C853D85EB8DD6
:101CF000FC8D858590E00996B901A80141505109F4
:101D000061097109082E04C0769567955795479526
:101D10000A94D2F775016401E1E0CE1AD108E10816
:101D2000F10804C0F694E794D794C7948A95D2F743
:101D3000C416D506E606F70620F0012B022B032B6E
:101D400011F58F89988DA98DBA8D8E839F83A88771
:101D5000B9878E010A5F1F4FC114D104E104F10459
:101D600009F4ADCF4E815F816885798598018B8DAF
:101D70009C8D0E94F40C91E0C91AD108E108F10889
:101D80008111EACF81CFC41AD50AE60AF70AE1CF5A
:101D90003F924F925F926F927F928F929F92AF92FB
:101DA000BF92CF92DF92EF92FF920F931F93CF9348
:101DB000DF93CDB7DEB72C970FB6F894DEBF0FBE1A
:101DC000CDBF5C01DC015B968D909C905C97169674
:101DD0004D905D906D907C90199741145104610471
:101DE000710409F468C0BFEF4B1A5B0A6B0A7B0AE7
:101DF000312CF40181859285A385B4859C01AD01C8
:101E00002F5F3F4F4F4F5F4F29873A874B875C8744
:101E1000730162011D821E821F821886F401818572
:101E20009285A385B4852D813E814F8158852817E1
:101E300039074A075B0708F056C089859A85AB8544
:101E4000BC858C159D05AE05BF0550F482E0C82EFB
:101E5000D12CE12CF12C92E0492E512C612C712CCB
:101E60009E012F5F3F4FB701A601C4010E94F40CF1
:101E70008823C9F189819A81AB81BC81892B8A2B06
:101E80008B2B09F1260137019FEF491A590A690A7C
:101E9000790A2D813E814F8158852F5F3F4F4F4FEB
:101EA0005F4F2D833E834F8358873FEFC31AD30A7A
:101EB000E30AF30AB3CFF40140805180628073805B
:101EC0003324339496CFC414D504E604F70409F7F9
:101ED0000FEF1FEF2FEF3FE0B701A601C4010E94F3
:101EE000520C811119C080E02C960FB6F894DEBF19
:101EF0000FBECDBFDF91CF911F910F91FF90EF905B
:101F0000DF90CF90BF90AF909F908F907F906F9019
:101F10005F904F903F900895D50116964D915D9139
:101F20006D917C911997411551056105710539F045
:101F300097018601C4010E94520C8823A1F2D501A9
:101F40001696CD92DD92ED92FC921997332051F0C6
:101F5000D701C6010196A11DB11DF40180839183B3
:101F6000A283B383F5018789908DA18DB28D892BD2
:101F70008A2B8B2B39F48481C78AD08EE18EF28E26
:101F800080688483F50184818062848381E0ACCFA2
:101F90002F923F924F925F926F927F928F929F9279
:101FA000AF92BF92CF92DF92EF92FF920F931F9367
:101FB000CF93DF93EC015B012A018D81811115C064
:101FC0008FEF9FEFDF91CF911F910F91FF90EF90D7
:101FD000DF90CF90BF90AF909F908F907F906F9049
:101FE0005F904F903F902F9008958C8180FFE8CFB5
:101FF0000B891C892D893E894A855B856C857D8589
:10200000C201B0E0A0E068017901C41AD50AE60A6D
:10201000F70AC816D906EA06FB0618F42801441A7E
:10202000550A42011E0126E0220E311C8114910442
:1020300009F4B3C04A855B856C857D856A0181E0C2
:10204000D8228B8D9C8D8A019B01E9E036952795DE
:1020500017950795EA95D1F7ED81E230E1F5FC019E
:10206000628D738D848D958D600F711F821F931FFC
:10207000612C22E0722E6C187D088614970408F4F7
:1020800034012C8126FD04C06114F2E07F0671F456
:10209000009101011091020120910301309104018E
:1020A000061717072807390709F053C040E00E94B8
:1020B000C60A882309F484CFC601805B9D4FD501F1
:1020C0009C01260D371DFC012E173F0709F460C047
:1020D00041914D93F9CFFC0174807A947022C11420
:1020E000D10471F471100CC0452B462B472B39F5E8
:1020F0008F89988DA98DBA8D8E839F83A887B98784
:10210000EB8DFC8D6E817F81888599856250710988
:1021100081099109258504C0660F771F881F991FC3
:102120002A95D2F70685178520893189600F711F9E
:10213000821F931F670D711D811D911D99CF4E81C7
:102140005F816885798591010E94F40C8111D8CF57
:1021500037CF750183019601AB01BC0180913D022F
:1021600090913E020E946709882309F429CFA60CAA
:10217000B71C8A859B85AC85BD85860D971DA11DE5
:10218000B11D8A879B87AC87BD87861897084ECF7D
:10219000281B390BA20EB31EECCFC20113CF1F9325
:1021A000CF93DF93FC012581222371F1162FEC01DF
:1021B000848187FF1EC0CF010E94100BFC01892B78
:1021C00019F18D81823040F48B899C89AD89BE895B
:1021D000848F958FA68FB78F8F89988D938F828FDD
:1021E0008F89988DA98DBA8DB58BA48B8C818F77B3
:1021F0008C83111103C08C818F7E8C83812FDF91A2
:10220000CF911F910C949B0A80E0DF91CF911F9199
:102210000895FF920F931F93CF93DF93EC018D816D
:10222000813041F090E080E0DF91CF911F910F91DC
:10223000FF9008958C8181FFF5CF82FD1BC0009136
:102240003D0210913E02C8010E94F4080E94D3088A
:10225000F82EC8010E94C1088FEFF812E3CF8C81DD
:1022600085FF1BC060E0CE010E94CF108C818F7D66
:102270008C83D8CF4B895C896D897E898A859B85C3
:10228000AC85BD8584179507A607B707C1F2CE01B7
:102290000E94340E8111D3CFC5CF4091A50150913A
:1022A000A6016091A7017091A801452B462B472BF1
:1022B00021F080E00E94770AB5CF80618C832A8567
:1022C0003B85317080E092E0821B930BADCFCF93C2
:1022D000DF93EC0161E00E94CF10882311F01D8292
:1022E00081E0DF91CF9108952F923F924F925F92BC
:1022F0006F927F928F929F92AF92BF92CF92DF9216
:10230000EF92FF920F931F93CF93DF9300D000D0F3
:102310001F92CDB7DEB77C015B01342E5D83DC01FB
:1023200015968C911597813009F0CEC014962C909B
:1023300021FECAC022FCB4C0C32CDD8022947FE001
:1023400027222094B22DB1702B2ED7011A964D91D1
:102350005D916D917C911D97C114D10409F428C140
:102360005B968D919C915C97FC0174807A948A01B4
:102370009B0169E036952795179507956A95D1F7E2
:1023800070228A011170711020C001151105E9F445
:1023900016964D915D916D917C911997411551055E
:1023A0006105710509F099C057968D919D910D9029
:1023B000BC91A02D0097A105B10509F0B0C0C701DF
:1023C0000E94C80E882309F47FC080E092E0801B41
:1023D000910B46018C159D0508F44C01D7015B96C5
:1023E0004D915C915C9716968D919D910D90BC914D
:1023F000A02D0297A109B109FA01258504C0880F13
:10240000991FAA1FBB1F2A95D2F746855785608959
:102410007189840F951FA61FB71F9C01AD01270D61
:10242000311D411D511D29013A01811432E09306ED
:1024300009F07BC08091010190910201A0910301FC
:10244000B091040184159505A605B70559F48FEFE1
:102450009FEFDC018093010190930201A09303019F
:10246000B0930401022D9501B301A20180913D02B8
:1024700090913E020E94090A882331F19EEFB91A19
:10248000C818D908F70182859385A485B585880D7C
:10249000991DA11DB11D82879387A487B58755CF4C
:1024A000F701438954896589768982859385A48556
:1024B000B585481759076A077B0709F43DCFC7015F
:1024C0000E94340E811138CF81E090E0D70113963D
:1024D0009C938E93129780E007C09E012F5F3F4F21
:1024E0000E94F40C811102C090E079C089819A8128
:1024F000AB81BC81F701238D348DF901278948EF29
:102500005FEF60E070E0203121F048EF5FEF6FEFA8
:102510007FE084179507A607B70708F050CFF701AB
:1025200086839783A087B18750CF0115110599F550
:10253000D7011A964D915D916D917C911D9753969F
:102540008D919D910D90BC91A02D481759076A0758
:102550007B0708F181E00E949B0A882309F4B4CF2D
:1025600040920101509202016092030170920401B5
:102570008091A40181608093A401C801805B9D4F7C
:10258000D5019C01280D391DFC012E173F0759F07C
:102590004D914193FACF41E0C301B2010E94C60AB6
:1025A0008111EBCF91CF281B390BA20EB31E68CF40
:1025B000F70183899489A589B68984179507A607A9
:1025C000B70738F48481438B548B658B768B806896
:1025D0008483F701848183FD1AC0832D9D810F9030
:1025E0000F900F900F900F90DF91CF911F910F914F
:1025F000FF90EF90DF90CF90BF90AF909F908F9023
:102600007F906F905F904F903F902F90089561E082
:10261000C7010E94CF10882309F456CFDECFCF9395
:10262000DF931F92CDB7DEB7698341E050E0BE0172
:102630006F5F7F4F0E9474110F90DF91CF910895CB
:10264000FC01DB0112968D919C91139793838283F9
:102650008EE691E09183808314968C911497848305
:1026600015968C911597858316964D915D916D9178
:102670007C91199746835783608771871A964D918D
:102680005D916D917C911D97428753876487758713
:102690001E964D915D916D917C915197468757871C
:1026A000608B718B52968C915297828B53964D9181
:1026B0005D916D917C915697438B548B658B768B96
:1026C00057964D915D916D917C915A97478B508FA4
:1026D000618F728F5B968D919C91948F838F0895FB
:1026E000DC015996ED91FC91309721F081E09581C4
:1026F000911101C080E00895FC01818D928D0097B9
:1027000019F061E00C94CF100895DC015996ED9119
:10271000FC913097B9F083899489A589B68942855F
:10272000538564857585841B950BA60BB70B8115A6
:1027300020E89207A105B10538F08FEF9FE7A0E0F0
:10274000B0E0089590E080E00895DC0159968D9105
:102750009C91009739F0DC01ED91FC910480F581AA
:10276000E02D099490E080E00895CF93DF93EC0191
:10277000E98DFA8D309749F481E090E09B838A835C
:1027800090E080E0DF91CF91089513821282898DCD
:102790009A8D0E947411E98DFA8D22813381232B49
:1027A00059F7F0CFCF93DF931F92CDB7DEB7698390
:1027B000DC01ED91FC910280F381E02D41E050E0DD
:1027C000BE016F5F7F4F09950F90DF91CF91089504
:1027D000CF93DF931F92CDB7DEB741E050E0BE014B
:1027E0006F5F7F4F0E94C80F019731F4898190E09D
:1027F0000F90DF91CF9108958FEF9FEFF9CFFC01FC
:10280000818D928D009711F00C94E8138FEF9FEF5C
:1028100008950F931F93CF93DF93EC01898D9A8DC9
:1028200010E000E0009799F00E94E8138C010F3F40
:10283000100769F0898D9A8DFC0142855385648566
:10284000758541505109610971090E94340EC80112
:10285000DF91CF911F910F910895CF93DF93FB01EB
:1028600022813381DC0113963C932E93129744818D
:1028700055816681778114964D935D936D937C931A
:102880001797408551856285738518964D935D93A2
:102890006D937C931B971C96EF012C969C01275EF1
:1028A0003F4F49914D93A217B307D9F7218D328D30
:1028B000FC01328F218FDF91CF91089580913C02EE
:1028C000882341F061E086E00E94F10460E086E048
:1028D0000C94F1040895FC0124813581FB014481AD
:1028E000558124173507E1F4FC0180819181FB01BA
:1028F000608171810097D1F061157105A1F4232BDE
:10290000C1F0FC01808190E008C0232B91F0FB0115
:10291000808190E091958195910921E0892B09F0C2
:1029200020E0822F08950E94F831F7CF61157105DC
:1029300061F721E0F6CF8F929F92AF92BF92CF9234
:10294000DF92EF92FF920F931F93CF93DF9300D00C
:1029500000D0CDB7DEB7FC018581813091F080E0F9
:102960000F900F900F900F90DF91CF911F910F91CB
:10297000FF90EF90DF90CF90BF90AF909F908F909F
:102980000895848181FFEBCF83899489A589B689D5
:10299000892B8A2B8B2B09F45FC07F0140E050E02C
:1029A000BA01CF010E94340E8823C9F2F701C38C0B
:1029B000D48C8788908CA18CB28C82E090E0A0E0CF
:1029C000B0E0F60180839183A283B3839E012F5FE1
:1029D0003F4FB501A401C6010E94F40C882309F4FD
:1029E000BECF00E010E09801B501A401C6010E942D
:1029F000520C882309F4B3CF89809A80AB80BC80C5
:102A0000F6018789803119F188EF9FEFAFEFBFE0C2
:102A100088169906AA06BB06C8F2F701178A108E17
:102A2000118E128E138A148A158A168A8481806800
:102A3000848361E0C7010E94CF10882309F48FCFFF
:102A400040E050E0BA01C7010E94340E89CF88EF00
:102A50009FEFA0E0B0E0DCCF81E082CFCF92DF92A9
:102A6000EF92FF921F93CF93DF93EC0180E2689F78
:102A7000F0011124E05BFD4F9385917161F0842F8B
:102A8000827449F080E0DF91CF911F91FF90EF9029
:102A9000DF90CF900895142F6A8B8091010190915F
:102AA0000201A0910301B09104018E879F87A88B3A
:102AB000B98BC488D588F12CE12C7601DD24CC2497
:102AC000CF8AD88EE98EFA8E828D938DB0E0A0E009
:102AD000AC01BD014C295D296E297F294F8B588F90
:102AE000698F7A8F83858871B1F4848D958DA68DD9
:102AF000B78D8B8B9C8BAD8BBE8B81E08D831F70D4
:102B00001C831E821F82188619861A861B861C86C5
:102B10001D8681E0B8CF803109F0B4CF9E012D5ED3
:102B20003F4F8B8D9C8D0E94750D882309F4AACF91
:102B300084E0E4CFCF93DF93D82FC8E06D2F61708E
:102B400082E10E94F104D69561E081E10E94F104E6
:102B500060E081E10E94F104C15081F7DF91CF91E3
:102B60000895CF93DF93D92FC62F0E949A158D2FEA
:102B70000E949A158C2FDF91CF910C949A150E9488
:102B8000B11561E080E10E94F10460E08FE00E94F5
:102B9000F10461E08FE00E94F10460E080E10C94B8
:102BA000F104E62FE150FF0B9F0198E2929FF001A4
:102BB000939FF00D112490E081509840642F8E0F68
:102BC0009F1F0C94BF15CF92DF92EF92FF920F934D
:102BD0001F93CF93DF93182F062F7A01D0E0C0E028
:102BE0008250990B6C01D70114968D919C91159789
:102BF000C817D907C0F4C6018C0F9D1F869770F4C3
:102C0000ED91FC91309761F41092A101E1EAF1E0BD
:102C10004081602F8C2F810F0E94D1152196E3CF28
:102C2000EC0FFD1FF5CFDF91CF911F910F91FF901A
:102C3000EF90DF90CF900895CF93C2E043E061E042
:102C40008C2F0E94D11543E86EE18C2F0E94D11584
:102C500043E06AE18C2F0E94D115CF5FC83271F733
:102C6000C1E045E86C2F81E00E94D11545E06C2F52
:102C700088E20E94D115CF5FCF3199F7CF910895A7
:102C8000CF93DF93C2E0D2E040E26C2F8D2F0E9401
:102C9000D115DF5FD832C1F7CF5FCA31A1F7DF911D
:102CA000CF910895CF93DF93D0E0C0E0FE01E051D3
:102CB000FE4F40816DE18C2F8E5F0E94D1152196D1
:102CC000C632D10599F7DF91CF9108958EE38093B5
:102CD000F0011092F10182E090E020E2FC01E0516D
:102CE000FE4F2083019686329105C1F781E08093E3
:102CF0000A010C945216CF93DF93C0E0D8EF60E244
:102D0000CE010E94BF152196C03B8CEFD807B9F7C2
:102D1000DF91CF9108951F93CF93DF9360E00E94DE
:102D2000B11561E080E10E94F10461E08EE00E9453
:102D3000F10461E081E10E94F10460E08EE00E9414
:102D4000F10460E080E10E94F104C7E0D0E010E00F
:102D500061E081E10E94F10483E10E94C8040C2E2D
:102D600001C0880F0A94EAF7182B60E081E10E9405
:102D7000F104219768F7812FDF91CF911F9108957A
:102D8000CF93DF93EC014C815D8141155105B1F08A
:102D90004617570710F461E070E088819981461B5F
:102DA000570B5D834C83680F791F0E940832E881BE
:102DB000F9818C819D81E80FF91F1082DF91CF91FD
:102DC000089542E050E066E771E080E594E00C94FD
:102DD00092030F931F93CF93DF938C01EB01FC01C0
:102DE000808191810097E1F0688179816115710599
:102DF000A9F0428153812C813D814217530770F025
:102E00000E9401328C819D81F801958384831D820B
:102E10001C82DF91CF911F910F9108950E948930FC
:102E200088819981F801918380838A819B81938332
:102E300082838C819D8195838483198218821B8271
:102E40001A82E5CFFC0180819181009711F00C94EA
:102E500089300895CF93DF93EC01898D9A8D009787
:102E600041F00E946711898D9A8D0E9489301A8ED7
:102E7000198EDF91CF9108950F931F93CF93DF9316
:102E8000EC0188819981009759F02A813B812617AE
:102E9000370730F081E0DF91CF911F910F910895B6
:102EA0008B016F5F7F4F0E941231009759F0998319
:102EB00088831B830A832C813D81232B59F7FC01D6
:102EC0001082E8CF80E0E7CFEF92FF920F931F933D
:102ED000CF93DF93EC017B018A01BA010E943C177A
:102EE00028813981811114C02115310519F0C901DA
:102EF0000E948930198218821D821C821B821A82CC
:102F0000CE01DF91CF911F910F91FF90EF90089527
:102F10001D830C83B701C9010E940132F1CFFB016F
:102F200001900020E9F73197AF01461B570B0C9435
:102F30006417FB01DC0111961C921E9213961C92E1
:102F40001E92129715961C921E9214978617970739
:102F500049F0608171816115710521F044815581CD
:102F60000C9464170895EF92FF921F93CF93DF9311
:102F700000D000D000D0CDB7DEB77C0112E040E237
:102F80006BE1812F0E94D1151F5F1832C1F7B70185
:102F9000CE0101960E949917F7012481358186E2BE
:102FA00090E0821B930B96958795AE014F5F5F4F24
:102FB0006BE18E5F0E94E315CE0101960E942217FD
:102FC00026960FB6F894DEBF0FBECDBFDF91CF912E
:102FD0001F91FF90EF900895FC01118210821382DF
:102FE0001282158214826115710551F0FB01019066
:102FF0000020E9F73197AF01461B570B0C9464177B
:103000000895EF92FF920F931F93CF93DF93EC01FC
:103010008B01198218821B821A821D821C82CB01AD
:103020000E94C42E7C01BC01CE010E943C17288165
:103030003981811113C02115310519F0C9010E9490
:103040008930198218821D821C821B821A82DF91AC
:10305000CF911F910F91FF90EF900895FD82EC8228
:10306000B801C901DF91CF911F910F91FF90EF90AF
:103070000C94BD2ECF93DF9300D000D000D0CDB7FD
:10308000DEB781508A3008F056C0E82FF0E0E55BEB
:10309000F74E0C94E72F551864186718861889188E
:1030A0008C188F189218951898186EE874E0CE0155
:1030B00001960E940118CE0101960E94B317CE011D
:1030C00001960E94221719C06FE774E0F0CF64E602
:1030D00074E0CE0101960E940118CE0101960E9473
:1030E000B317CE0101960E94221746E950E060E036
:1030F00070E082E390E00E945B0526960FB6F8949C
:10310000DEBF0FBECDBFDF91CF91089563E474E0C1
:10311000E0CF66E274E0DDCF6BE074E0DACF68EE1A
:1031200073E0C5CF6FEC73E0C2CF62EB73E0BFCF4B
:1031300061E973E0BCCF6BE773E0CE0101960E94BA
:103140000118AE014F5F5F4F6BE182E00E94E31513
:10315000CE0101960E9422178091050164E773E079
:10316000811102C06DE673E0CE0101960E94011844
:10317000AE014F5F5F4F6BE187E10E94E315CE0127
:1031800001960E9422178091000167E673E0811189
:1031900002C061E673E0CE0101960E940118AE0103
:1031A0004F5F5F4F6BE18DE10E94E315CE01019609
:1031B0000E9422176BE573E0CE0101960E94011870
:1031C000AE014F5F5F4F6BE182E20E94E31577CF64
:1031D0003F924F925F926F927F928F929F92AF92A7
:1031E000BF92CF92DF92EF92FF920F931F93CF93F4
:1031F000DF93CDB7DEB72B970FB6F894DEBF0FBEC7
:10320000CDBF7C01DC0115968C91811115C0FE01AA
:103210003196CE010C966F0130E23193E817F90731
:10322000E1F7DA0130E087E09D91B92E992329F189
:103230009E3239F48A3011F480E0DAC038E08AE056
:10324000F3CFE5EAF4E04491442321F0319694135E
:10325000FACFF2CF831780F34FED490F4E3560F769
:103260004FE9490F4A3118F440EEB42EB90EF60179
:10327000E30FF11DB0823F5FD7CF89818032E1F249
:10328000322E8B01FB01838D948DD7015C969C932C
:103290008E935B971682178210861186128613868C
:1032A00014861586F80182859385A485B5854389A2
:1032B00054896589768984179507A607B70708F0AA
:1032C0004DC025E0B695A795979587952A95D1F796
:1032D000F82FFF70AF2ED80115968C91823008F42C
:1032E000ABCFC8010E94E81397FDA6CFF8018285F5
:1032F0009385A485B5854F96A11DB11D82879387BF
:10330000A487B587F0E2AF9EB0011124605B7D4FCA
:103310006115710509F490CFDB018C91882341F090
:10332000853E09F058C0BB2029F0BB24B394BACF26
:10333000B1100EC0F701A28A8091010190910201A3
:10334000A0910301B091040186879787A08BB18B70
:10335000DB018C918111E9CFBB24B394832D827161
:10336000823109F069CFBB2009F45AC0C7010E941D
:10337000100B009709F460CF20E2FC0111922A950E
:10338000E9F72BE0F601DC0101900D922A95E1F7B7
:1033900021E238E2DC0151963C932E93509740E0B5
:1033A00058E01F965C934E931E9753963C932E9332
:1033B000529759963C932E93589757965C934E93F9
:1033C000569781E00E949B0A882309F435CF432D4C
:1033D000F70162890AC04BE050E0C6010E94D73174
:1033E000892B09F05FCF432D6A2DC7010E942E154E
:1033F0002B960FB6F894DEBF0FBECDBFDF91CF91F5
:103400001F910F91FF90EF90DF90CF90BF90AF9002
:103410009F908F907F906F905F904F903F90089516
:10342000F8018581823009F407CFC8010E94C80ED7
:10343000882309F401CFD8015B96ED91FC915C974C
:1034400016968D909D90AD90BC901997B2E08B1A16
:103450009108A108B108858504C0880C991CAA1C94
:10346000BB1C8A95D2F786859785A089B189880E7D
:10347000991EAA1EBB1E848124013501480E511CD1
:10348000611C711C84149504A604B70409F1E1E0E1
:103490004E1A51086108710881E00E949B0A882336
:1034A00009F4CACEE0E5F2E0119280E594E08E17CF
:1034B0009F07D1F7409201015092020160920301EF
:1034C000709204018091A40181608093A401DACFFD
:1034D000D8015B96ED91FC91258580E092E0A0E01B
:1034E000B0E004C0880F991FAA1FBB1F2A95D2F70E
:1034F000F8014389548965897689840F951FA61F31
:10350000B71F838B948BA58BB68BD70152961C92D9
:1035100080E592E031CF5F926F927F928F929F927F
:10352000AF92BF92CF92DF92EF92FF920F931F93D1
:10353000CF93DF93CDB7DEB7C754D1090FB6F89458
:10354000DEBF0FBECDBF5C013B0119A218A28EE603
:1035500091E09F8F8E8F1BA21C821B829A8389838E
:103560001E8210E000E06E018EE1C80ED11C89E1E0
:10357000E82E85E0F82EF501E00FF11F80818F32F3
:1035800011F40F5F1F4FD501A00FB11FFE01FB9675
:1035900090E080E04F012D912F3249F0222339F045
:1035A0000F5F1F4F019621938C309105A1F7880D75
:1035B000991DFC011082F501E00FF11F80818F320F
:1035C00011F40F5F1F4FF501E00FF11F508041E034
:1035D000511040E030E020E0B401C701F30109954B
:1035E000811121C0F9E1EF16F5E0FF06C1F480E09A
:1035F000C95BDF4F0FB6F894DEBF0FBECDBFDF91C2
:10360000CF911F910F91FF90EF90DF90CF90BF90DF
:10361000AF909F908F907F906F905F900895C701BB
:103620000E946711E4CF552091F021E0A401B70179
:10363000C6010E94E818982E89E1E81685E0F80690
:1036400081F0C7010E946711911010C0D0CF99E19D
:10365000E91695E0F90619F0C7010E94671181E0AB
:10366000C7CF992021F2FE0131967F019E2D8F2D2B
:103670007601C92ED82E7FCF60E47BE10C948B1AA3
:103680001F93CF93DF93CDB7DEB76D970FB6F89446
:10369000DEBF0FBECDBFAB011C821B822EE631E028
:1036A0003A8329831E8221E0BC01CE0101960E944B
:1036B000E81811E081110CC010E0812F6D960FB653
:1036C000F894DEBF0FBECDBFDF91CF911F9108955B
:1036D000CE0101960E946711F0CFCF93DF93CDB753
:1036E000DEB76D970FB6F894DEBF0FBECDBF442393
:1036F00099F1AB01BC011C821B828EE691E09A839A
:1037000089831E8222E0CE0101960E94E818811171
:103710000EC090E081E0911101C080E06D960FB67F
:10372000F894DEBF0FBECDBFDF91CF910895CE01DB
:1037300001960E949B14882361F3CE0101960E949A
:10374000100B009731F325EEFC0120831E8281E0EF
:103750000E949B0A982FDECF81E0E0CFEF92FF928C
:103760000F931F93CF93DF93EC017B018A011B82A0
:103770001A8288EE93E0A0E0B0E08C839D83AE8354
:10378000BF838AE491E0998388838DE190E00E9471
:10379000ED2F9A8F898F009779F02DE1F701DC01E9
:1037A00001900D922A95E1F74CE050E0B801CE016E
:1037B0000C960E940832188EDF91CF911F910F91C5
:1037C000FF90EF9008952F923F924F925F926F92E9
:1037D0007F928F929F92AF92BF92CF92DF92EF92A1
:1037E000FF920F931F93CF93DF93CDB7DEB7C756EA
:1037F000D1090FB6F894DEBF0FBECDBF5C013B010F
:10380000A6964FAFA69719A218A28EE691E09F8FB9
:103810008E8F1BA21C821B829A8389831E824E017B
:103820008EE1880E911CC4010E94E00D63018E019F
:103830000F5F1F4F240118016FE270E0C6010E9464
:10384000ED31009709F459C0F60120812F3271F44F
:10385000FFEFCF1ADF0A902F812F8201492E582EB9
:10386000942D852D2801092F182FE6CF8C198D3026
:1038700008F08CE0E82EF12CA701B601CE01885AA1
:103880009F4F0E940832E8E5F0E0EC0FFD1FEE0DBF
:10389000FF1D1082C8010E94671121E0AE01485A45
:1038A0005F4FB201C8010E94E818811120C01EAE0E
:1038B0001DAE8EE691E09CAF8BAF21961FAE219797
:1038C000A896EEADFFADA8976E0E7F1EF301808126
:1038D000811120C0BE01655C7F4FC1010E94201391
:1038E00049E751E0B101C5010E94AE1B31C0CE0CC9
:1038F000DF1CC2010E946711B3CFC6018619970968
:10390000A8969FAF8EAFA897B201CE01CB960E942A
:103910002013D6CF19A218A28EE691E09F8F8E8F2A
:103920001BA221968FAD219781112DC0F501138225
:10393000128288EE93E0A0E0B0E084839583A683B2
:10394000B7838AE491E091838083128E118E14866E
:10395000C501C959DF4F0FB6F894DEBF0FBECDBF0A
:10396000DF91CF911F910F91FF90EF90DF90CF905B
:10397000BF90AF909F908F907F906F905F904F908F
:103980003F902F900895A6962FADA697A301BE0154
:10399000655C7F4FC4010E94E818882339F2CE018C
:1039A000CB960E946711A6968FADA697867086303B
:1039B00039F449A95AA96BA97CA9C4010E94340E03
:1039C000B401C1010E942013A3018CCFCF92DF92DA
:1039D000FF920F931F93CF93DF93CDB7DEB7E69798
:1039E0000FB6F894DEBF0FBECDBF6C018B01F42E75
:1039F0001F8E1E8E88EE93E0A0E0B0E088A399A30E
:103A0000AAA3BBA38AE491E09D8F8C8F1EAA1DAA56
:103A100018A6C6010E948003882389F086E0FF2053
:103A200039F1E6960FB6F894DEBF0FBECDBFDF9139
:103A3000CF911F910F91FF90DF90CF900895C80113
:103A40000E948003811117C040E150E070E060E007
:103A5000F801808191810E94762D8B01F601808191
:103A600091810E943C1B811109C084E0F110D9CFE3
:103A70000E943A18D6CF02E012E0F0CFF601608142
:103A8000718141E0CE0101960E94E31BBE016F5F90
:103A90007F4FCE014C960E942D14CE014C960E9471
:103AA0007013811102C085E0E3CFCE014C960E94D5
:103AB0008513892B79F0CE014C960E94FF13682F55
:103AC000C8010E94BF150F5F1F4F79F7CE014C96BA
:103AD0000E942A17CE014C960E942A17F110A1CFFE
:103AE00082E0C6CFEF92FF920F931F93CF93DF93A5
:103AF000CDB7DEB78C01EDB6FEB6662319F081E0D6
:103B00008093A0018091A001E82FF0E0DF01A05197
:103B1000BE4F9C918F5F9032B9F39C919C32A1F380
:103B2000282F30E0D901A051BE4F9C91903201F571
:103B30002E1B3F0BA9014F5F5F4F6DB77EB7641B14
:103B4000750B0FB6F8947EBF0FBE6DBF6F5F7F4FD2
:103B5000AF014817A8F4DA01A051BE4F9C91DA01D9
:103B6000AE1BBF0BA60FB71F9C934F5F5F4FF1CFEC
:103B70009C919C32E9F29C919923D1F28F5FD0CF36
:103B8000260F371FF90110828093A001C8010E94FF
:103B9000EC17C8010FB6F894FEBE0FBEEDBEDF9164
:103BA000CF911F910F91FF90EF9008954F925F92E8
:103BB0006F927F929F92AF92BF92CF92DF92EF92DD
:103BC000FF920F931F93CF93DF93CDB7DEB7CB5CFC
:103BD000D1090FB6F894DEBF0FBECDBF68E771E024
:103BE000CE0186549F4F0E94EC1768E771E0CE012A
:103BF00080549F4F0E94EC1768E771E0CE018A5312
:103C00009F4F0E94EC1761E0CE0101960E94721D49
:103C1000BE016F5F7F4FCE0186549F4F0E94E91611
:103C2000CE0101960E942217C654DF4F08811981E8
:103C3000CA5BD0400115110571F0D8018D918D013D
:103C4000882349F0082E000C990B0E94CF31F8010F
:103C500031978083F2CFC254DF4F88819981CE5B48
:103C6000D0400097B1F508E513E0F80164916623B0
:103C700041F080E594E00E9432040F5F1F4F892BD2
:103C8000A1F70E94E116CE018A539F4F0E9422178E
:103C9000CE0180549F4F0E942217CE0186549F4F21
:103CA0000E942217C553DF4F0FB6F894DEBF0FBE38
:103CB000CDBFDF91CF911F910F91FF90EF90DF90DB
:103CC000CF90BF90AF909F907F906F905F904F90FC
:103CD0000895C654DF4FE881F981CA5BD040309720
:103CE00009F45FC02081203309F05BC0029708F41B
:103CF00058C08181883709F054C062E070E0CE017D
:103D000086549F4F0E94C01640E150E070E060E092
:103D1000C654DF4F88819981CA5BD0400E94762DBE
:103D20006B0160E0CE0101960E94721DBE016F5FC3
:103D30007F4FCE0180549F4F0E94E916CE0101961D
:103D40000E942217F12C11E0CE0180549F4F0E9457
:103D5000800381119FC0C054DF4F88819981C05C6E
:103D6000D040CC53DF4F28813981C45CD040232B15
:103D700039F0009729F0DC012C91233209F456C068
:103D800040E150E070E060E00E94762D062FC60111
:103D90000E948B16801799F1602FC6010E94BF15F3
:103DA000F6CF63E573E0CE0101960E940118BE01D3
:103DB0006F5F7F4FCE0186549F4F0E946B14182F68
:103DC000CE0101960E9422171111D2C06FE473E058
:103DD000CE0101960E940118BE016F5F7F4FCE0198
:103DE00086549F4F0E946B14182FCE0101960E949B
:103DF0002217112309F457C10E94401650C1100F19
:103E0000F10EBFEFCB1ADB0A60E0CE0101960E94F3
:103E1000721DBE016F5F7F4FCE0180549F4F0E9485
:103E2000E916CE0101960E9422178ECF61E070E064
:103E3000CE0180549F4F0E94C01640E150E070E0D8
:103E400060E0C054DF4F88819981C05CD0400E94FF
:103E5000762D6B01912F8F2D8C159D05A9F2BE013A
:103E600066547F4FCE0101960E949917AE014F5FB5
:103E70005F4F6AE18CE10E94E315CE0101960E943A
:103E8000221742E350E060E070E082E390E00E949D
:103E90005B05BACF82E00E943A18BE0166547F4F9C
:103EA000CE0101960E949917AE014F5F5F4F6BE103
:103EB0008CE10E94E315CE0101960E942217C254A4
:103EC000DF4F48815981CE5BD040C654DF4F6881B7
:103ED0007981CA5BD04080E594E00E94920360E261
:103EE00080E594E00E943204912F8F2DB0E0A0E095
:103EF00019A2FE01B196AC01BD014F70552766278E
:103F0000772714E0B695A795979587951A95D1F7D9
:103F10004A3064F5405D42930097A105B10559F719
:103F2000309769F0DF010D900020E9F71197AD019E
:103F30004E1B5F0BBF0180E594E00E9492030E943C
:103F4000E11680913C0281119ECE90E080E0FC0160
:103F5000E051FE4F2081FC01EA5EFD4F2083019677
:103F600086329105A1F70E9466168DCE495CD3CFAB
:103F70000E94401660E0CE0101960E94721DBE01B3
:103F80006F5F7F4FCE0186549F4F0E94E916CE018E
:103F900001960E942217BE0166547F4FCE01CF9634
:103FA0000E949917CE01CF960E94800310E000E096
:103FB00081110BC040E150E070E060E021968EADD1
:103FC0009FAD21970E94762D8B01F2E0FF2E6BE7CB
:103FD00071E0CE0101960E94EC17AE014F5F5F4F7A
:103FE0006F2D83E00E94E315CE0101960E942217F7
:103FF0001BA21AA21DA21CA21FA21EA240E1BE016A
:104000006F5F7F4FC8010E94042FBE016F5F7F4F1B
:10401000CE0182960E948F17AE014E5D5F4F6F2DCD
:1040200085E00E94E315CE0182960E942217C80106
:10403000ECE0EE2E6C01EFEFCE1ADE0A0E948B163A
:104040001BA21AA21DA21CA21FA21EA240E1BE0119
:104050006F5F7F4F90E00E94042FBE016F5F7F4F24
:10406000CE0182960E948F17AE014E5D5F4F6F2D7D
:104070008E2D0E94E315CE0182960E942217F3E056
:10408000EF0EC60124E2E212D5CF085F1F4FF39472
:1040900089E1F8129CCFCE01CF960E94221782E0D0
:1040A0000E943A184ECF67E473E0CE0101960E9459
:1040B0000118BE016F5F7F4FCE0186549F4F0E9453
:1040C0006B14182FCE0101960E9422171123B9F10B
:1040D0000E944016F12C10E000E076E2C72ED12CB1
:1040E0006F2DC8010E94BF15C8010E948B16682F52
:1040F000580190E8B91AC5010E94BF15C5010E9478
:104100008B16282FC801B6010E94B42FCB0101974E
:10411000880F991F622F9801255D3740820F931FEA
:104120000E94BF15AFEFFA1641F0F3940F5F1F4FD7
:104130000A36B3E01B07A1F6B2CFF12CF7CF62E449
:1041400073E0CE0101960E940118BE016F5F7F4FA0
:10415000CE0186549F4F0E946B14182FCE010196FA
:104160000E942217112339F01092050160E085E0CA
:104170000E94F10494CF6EE373E0CE0101960E9499
:104180000118BE016F5F7F4FCE0186549F4F0E9482
:104190006B14182FCE0101960E942217112329F0CB
:1041A00081E08093050161E0E2CF68E373E0CE0136
:1041B00001960E940118BE016F5F7F4FCE018654A9
:1041C0009F4F0E946B14182FCE0101960E94221758
:1041D000112321F0F0E0E0E00995B3CE63E373E052
:1041E000CE0101960E940118BE016F5F7F4FCE0184
:1041F00086549F4F0E946B14182FCE0101960E9487
:104200002217112341F061E089E00E94F10481E06E
:104210008093000144CF6EE273E0CE0101960E94CC
:104220000118BE016F5F7F4FCE0186549F4F0E94E1
:104230006B14182FCE0101960E942217112339F01A
:1042400060E089E00E94F1041092000128CF6AE248
:1042500073E0CE0101960E940118BE016F5F7F4F8F
:10426000CE0186549F4F0E946B14182FCE010196E9
:104270000E942217112309F488C1CC56DF4F1982FE
:104280001882C459D04048EE53E060E070E0CA564E
:10429000DF4F488359836A837B83C659D0408AE4C1
:1042A00091E0CE56DF4F99838883C259D040C555DF
:1042B000DF4F19821882CB5AD040C256DF4F188286
:1042C000CE59D040EB961FAE1EAEEB97EF964CAF9B
:1042D0005DAF6EAF7FAFEF97E9969FAF8EAFE99777
:1042E000C057DF4F19821882C059D040CD57DF4FD9
:1042F0001882C358D0400E94401641E069E771E03F
:10430000CE0101960E94E31BBE016F5F7F4FCE017D
:104310008E569F4F0E942D1492E0992E28EE422E29
:1043200023E0522E612C712C3AE4E32E31E0F32E7F
:104330004EE6C42E41E0D42E57E7A52EB12CAC0E8C
:10434000BD1EFCE0AF0EB11CC555DF4F08811981C1
:10435000CB5AD040D80115968C911597823008F42D
:1043600091C01A968D919D910D90BC91A02D8F7149
:104370009927AA27BB27892B8A2B8B2B09F082C070
:1043800040E250E0BE016F5F7F4FC8010E94C80F3E
:10439000803209F077C08981882309F473C0853E93
:1043A00079F38E3269F38C8583FDEACF23961FAEB5
:1043B0001EAE23972196DFAECEAE219725961FAE77
:1043C0002597BE016F5F7F4FE0E080E04EE2DB01AA
:1043D0009D91BD019032A1F0883049F42DEA30E082
:1043E0002C0F3D1F2E0F311DD9014C93EF5F2DEA8D
:1043F00030E02C0F3D1F2E0F311DD9019C93EF5F34
:104400008F5F8B3021F78DEA90E08C0F9D1F8E0F10
:10441000911DFC011082C555DF4F68817981CB5A0F
:10442000D04021E0AE0143555F4FCE01CF960E94B0
:10443000E818882339F1BE01615C7F4FCE01829676
:104440000E942013AE0143555F4FBE016E5D7F4F4A
:10445000CE01845A9F4F0E94AE1BBE01645A7F4F0B
:10446000CE0189589F4F0E942D14CE0189589F4F2D
:104470000E94701381111CC0CE018E569F4F0E9466
:104480002A170DCEA0961FAE1EAEA097A4964CAED6
:104490005DAE6EAE7FAEA4976E96FFAEEEAE6E973B
:1044A000E7961FAE1EAEE797A9961FAEA997D5CF88
:1044B000B501CE0101960E94EC17AE014F5F5F4F30
:1044C000692D83E00E94E315CE0101960E94221718
:1044D000C057DF4FE881F981C059D04060E070E0FB
:1044E000CB01309721F063897489858996891BA255
:1044F0001AA21DA21CA21FA21EA22AE0AE014F5F9B
:104500005F4F0E94E22EBE016F5F7F4FCE01829609
:104510000E948F17AE014E5D5F4F692D84E10E94AE
:10452000E315CE0182960E942217CE0189589F4F33
:104530000E942A1797E1991510F0939405CF87E010
:104540000E943A1812E040E26DE1812F0E94D115DD
:104550001F5F1832C1F70E9442088823E1F30E94CE
:104560001F0845E050E060E070E04B9729F48EEEC4
:1045700092E00E945B0580CF8EEE92E00E945B0588
:104580000E94401682E0982EDFCE66E273E0CE01F4
:1045900001960E940118BE016F5F7F4FCE018654C5
:1045A0009F4F0E946B14182FCE0101960E94221774
:1045B000112371F160E0CE0101960E94721DBE01CF
:1045C0006F5F7F4FCE0186549F4F0E94E916CE0148
:1045D00001960E942217BE0166547F4FCE010196BC
:1045E0000E94991789819A810E943C1B811108C001
:1045F00084E00E943A18CE0101960E942217A1CCB5
:104600006DE67BE189819A810E948B1A82E0F1CF6D
:1046100061E273E0CE0101960E940118BE016F5F56
:104620007F4FCE0186549F4F0E946B14182FCE01EE
:1046300001960E942217112309F43FC060E0CE01C9
:1046400001960E94721DBE016F5F7F4FCE0186549E
:104650009F4F0E94E916CE0101960E94221760E04A
:10466000CE0101960E94721DBE016F5F7F4FCE0189
:1046700080549F4F0E94E916CE0101960E94221796
:10468000BE0160547F4FCE0182960E949917BE01F1
:1046900066547F4FCE0101960E94991740E0BE01FB
:1046A0006E5D7F4FCE0101960E94E61CCE01019601
:1046B0000E942217CE018296A0CF6DE173E0CE0159
:1046C00001960E940118BE016F5F7F4FCE01865494
:1046D0009F4F0E946B14182FCE0101960E94221743
:1046E000112309F47BC090E080E0FC01E051FE4F13
:1046F0002081FC01EA5EFD4F208301968632910500
:10470000A1F70E947B1660E080E092E00E94BF1556
:1047100060E081E092E00E94BF1580910501811167
:1047200045C060EB8AEF9FEF0E94BF156CEF8BEFE7
:104730009FEF0E94BF1560E480EB9CEF0E94BF15C5
:1047400062E08CEF9FEF0E94BF1562E08DEF9FEF5C
:104750000E94BF1511E010933C0261E088E00E94C6
:10476000F10461E087E00E94F10462E370E080E020
:1047700090E00E945F0760E088E00E94F10480E121
:10478000809381001092800080E29EE490938700E5
:104790008093860082E1809381008EE594E190937E
:1047A000E0018093DF0110936F00CBCB6DEE86E6C6
:1047B00090E00E94BF1565E487E690E00E94BF1577
:1047C00063EC90E080E00E94BF1562E081E090E041
:1047D0000E94BF1562E082E090E0BACF68E173E02A
:1047E000CE0101960E940118BE016F5F7F4FCE017E
:1047F00086549F4F0E946B14182FCE0101960E9481
:104800002217112309F4CEC060E0CE0101960E9468
:10481000721DBE016F5F7F4FCE0186549F4F0E9475
:10482000E916CE0101960E94221760E0CE010196A2
:104830000E94721DBE016F5F7F4FCE0180549F4F5B
:104840000E94E916CE0101960E94221760E0CE0177
:1048500001960E94721DBE016F5F7F4FCE018A5389
:104860009F4F0E94E916CE0101960E942217BE01B9
:104870006A537F4FCE0189589F4F0E949917BE01FE
:1048800060547F4FCE01845A9F4F0E949917BE01FA
:1048900066547F4FCE01CF960E9499171DA21CA28D
:1048A00088EE93E0A0E0B0E08EA39FA3A8A7B9A7ED
:1048B0008AE491E09BA38AA31CAE1BAE1EA6CE0188
:1048C000CF960E948003882381F086E00E943A18E8
:1048D000CE01CF960E942217CE01845A9F4F0E948C
:1048E0002217CE0189589F4F88CE40E150E070E0FA
:1048F00060E021968EAD9FAD21970E94762D8B01B1
:10490000CE01845A9F4F0E9480038111DECF40E187
:1049100050E070E060E06E968EAD9FAD6E970E94A5
:10492000762D7B0189E0E016F10680F2CE018958F0
:104930009F4F0E9480038111C8CFE9968EAD9FAD35
:10494000E9970E943C1B882311F088E0BFCFE996CD
:104950006EAD7FADE99747E1CE0101960E94E31B62
:10496000BE016F5F7F4FCE0182960E942D14CE0153
:1049700082960E947013811102C085E0A7CFC80102
:104980000E948B16682FCE0182960E94D2130F5F71
:104990001F4FE016F10698F7CE0182960E942A1763
:1049A00082E094CF63E173E0CE0101960E9401188A
:1049B000BE016F5F7F4FCE0186549F4F0E946B14E4
:1049C000182FCE0101960E942217112309F4A6C0C8
:1049D00060E0CE0101960E94721DBE016F5F7F4FA5
:1049E000CE0186549F4F0E94E916CE0101960E9487
:1049F000221760E0CE0101960E94721DBE016F5F1A
:104A00007F4FCE0180549F4F0E94E916CE01019640
:104A10000E94221760E0CE0101960E94721DBE0125
:104A20006F5F7F4FCE018A539F4F0E94E916CE01E0
:104A300001960E942217BE016A537F4FCE01CF9686
:104A40000E949917BE0160547F4FCE0182960E944A
:104A50009917BE0166547F4FCE0101960E949917A7
:104A6000CE0101960E948003882371F086E00E94A7
:104A70003A18CE0101960E942217CE0182960E941A
:104A80002217CE01CF96B9CD40E150E070E060E052
:104A900089819A810E94762D2B017B01CE0182961D
:104AA0000E9480038111E2CF40E150E070E060E0BD
:104AB0008AA19BA10E94762D8B01CE01CF960E94E8
:104AC00080038111D3CF40E150E070E060E0219697
:104AD0008EAD9FAD21970E94762D0415150510F41B
:104AE00089E0C5CF0617170718F064157505C0F7DC
:104AF000DB01AE19BF097D016701C40CD51CC201E1
:104B00000E948B16682FC6010E94BF15BFEF4B1A7B
:104B10005B0A0415150580F782E0A9CF6EE073E00B
:104B2000CE0182960E940118BE016E5D7F4FCE01BC
:104B300086549F4F0E946B1411E0811116C06CE0E7
:104B400073E0CE0101960E940118BE016F5F7F4F96
:104B5000CE0186549F4F0E946B1411E0811101C059
:104B600010E0CE0101960E942217CE0182960E948B
:104B7000221783E0112309F493CA0E94401668EEBD
:104B800072E0CE0101960E940118AE014F5F5F4FA7
:104B900062E083E00E94E315CE0101960E94221795
:104BA0006CEC72E0CE0101960E940118AE014F5FDD
:104BB0005F4F63E083E00E94E315CE0101960E94FF
:104BC000221769EA72E0CE0101960E940118AE0137
:104BD0004F5F5F4F64E083E00E94E315CE010196D2
:104BE0000E94221768E872E0CE0101960E94011827
:104BF000AE014F5F5F4F66E083E00E94E315CE0198
:104C000001960E94221766E672E0CE0101960E948C
:104C10000118AE014F5F5F4F67E083E00E94E3152C
:104C2000CE0101960E9422176FE472E0CE01019638
:104C30000E940118AE014F5F5F4F68E083E00E9461
:104C4000E315CE0101960E9422176DE272E0CE01BB
:104C500001960E940118AE014F5F5F4F69E083E04B
:104C60000E94E315CE0101960E9422176DE072E0CA
:104C7000CE0101960E940118AE014F5F5F4F6AE0BE
:104C800083E00E94E315CE0101960E9422176FEE89
:104C900071E0CE0101960E940118AE014F5F5F4F97
:104CA0006BE083E00E94E315CE0101960E9422177B
:104CB00063ED71E0CE0101960E940118AE014F5FD5
:104CC0005F4F6CE083E00E94E315CE0101960E94E5
:104CD000221767EB71E0CE0101960E940118AE0128
:104CE0004F5F5F4F6DE083E00E94E315CE010196B8
:104CF0000E9422176EE971E0CE0101960E94011810
:104D0000AE014F5F5F4F6EE083E00E94E315CE017E
:104D100001960E94221761E871E0CE0101960E947F
:104D20000118AE014F5F5F4F6FE083E00E94E31513
:104D3000CE0101960E9422176AE671E0CE0101962B
:104D40000E940118AE014F5F5F4F60E183E00E9457
:104D5000E315CE0101960E94221767E471E0CE01AF
:104D600001960E940118AE014F5F5F4F61E183E041
:104D70000E94E315CE0101960E94221763E271E0C2
:104D8000CE0101960E940118AE014F5F5F4F62E1B4
:104D900083E00E94E315CE0101960E94221767E08E
:104DA00071E0CE0101960E940118AE014F5F5F4F86
:104DB00063E185E00E94E315CE0101960E9422176F
:104DC0006AEE70E0CE0101960E940118AE014F5FBD
:104DD0005F4F64E183E00E94E315CE0101960E94DB
:104DE000221766EC70E0CE0101960E940118AE0118
:104DF0004F5F5F4F65E183E00E94E315CE010196AE
:104E00000E94221764EA70E0CE0101960E94011808
:104E1000AE014F5F5F4F66E185E00E94E315CE0172
:104E200001960E94221763E870E0CE0101960E946D
:104E30000118AE014F5F5F4F67E183E00E94E31509
:104E4000CE0101960E94221768E670E0CE0101961D
:104E50000E940118AE014F5F5F4F68E183E00E943E
:104E6000E315CE0101960E9422178AE019C91F920C
:104E70000F920FB60F9211242F933F934F935F938E
:104E80006F937F938F939F93AF93BF93EF93FF9312
:104E90008091440290914502A0914602B091470250
:104EA000892B8A2B8B2BD1F190913F02E09140020C
:104EB000F091410280818927808380914402909102
:104EC0004502A0914602B0914702181619061A062B
:104ED0001B069CF48091440290914502A0914602E9
:104EE000B09147020197A109B109809344029093C0
:104EF0004502A0934602B0934702FF91EF91BF9104
:104F0000AF919F918F917F916F915F914F913F9161
:104F10002F910F900FBE0F901F90189580910B014D
:104F2000E9EAF6E0E4919FEF90930B01E13051F054
:104F300030F0E23069F060E00E94F104DECF1092C0
:104F40006E00F9CF90916F009D7F90936F00F3CF2B
:104F5000909170009D7F9093700091E09093B000CD
:104F60009091B100987F94609093B1001092B3003B
:104F7000E2CF1F920F920FB60F9211242F933F93FF
:104F80004F935F936F937F938F939F93AF93BF9351
:104F9000EF93FF9380E594E00E941004FF91EF915E
:104FA000BF91AF919F918F917F916F915F914F9141
:104FB0003F912F910F900FBE0F901F9018951F9249
:104FC0000F920FB60F9211242F938F939F93EF930D
:104FD000FF93E0916004F09161048081E0916604A8
:104FE000F091670482FD1BC09081809169048F5FFE
:104FF0008F7320916A04821741F0E0916904F0E018
:10500000E05BFB4F958F80936904FF91EF919F9137
:105010008F912F910F900FBE0F901F901895808148
:10502000F4CF1F920F920FB60F9211242F933F933C
:105030008F939F93AF93BF938091E2019091E3018F
:10504000A091E401B091E5013091E10123E0230F4B
:105050002D3758F50196A11DB11D2093E1018093D4
:10506000E2019093E301A093E401B093E501809104
:10507000E6019091E701A091E801B091E901019664
:10508000A11DB11D8093E6019093E701A093E80173
:10509000B093E901BF91AF919F918F913F912F9173
:1050A0000F900FBE0F901F90189526E8230F0296C1
:1050B000A11DB11DD2CF1F920F920FB60F921124D6
:1050C0002F933F934F935F936F937F938F939F9310
:1050D000AF93BF93EF93FF93E0910801F091090123
:1050E0000995FF91EF91BF91AF919F918F917F9122
:1050F0006F915F914F913F912F910F900FBE0F9045
:105100001F9018951F920F920FB60F9211242F9394
:105110003F934F935F936F937F938F939F93AF933F
:10512000BF93EF93FF93E0910601F091070109957A
:10513000FF91EF91BF91AF919F918F917F916F916F
:105140005F914F913F912F910F900FBE0F901F9045
:1051500018951F920F920FB60F9211242F933F9321
:105160004F935F936F937F938F939F93AF93BF936F
:10517000EF93FF93E091DF01F091E0010995FF913A
:10518000EF91BF91AF919F918F917F916F915F91BF
:105190004F913F912F910F900FBE0F901F90189538
:1051A000E0E5F4E01382128288EE93E0A0E0B0E044
:1051B00084839583A683B7838CE591E09183808374
:1051C00085EC90E09587848784EC90E097878687CC
:1051D00080EC90E0918B808B81EC90E0938B828BC4
:1051E00082EC90E0958B848B86EC90E0978B868B9D
:1051F000118E128E138E148EEDEEF4E080E5808316
:105200001182EFEEF4E0158216821186138682E099
:1052100090E0A0E0B0E084879587A687B78713A2C7
:1052200015A614A68EE691E093A782A717A6089567
:10523000CF93DF93CDB7DEB7A3970FB6F894DEBF59
:105240000FBECDBF789484B5826084BD84B5816083
:1052500084BD85B5826085BD85B5816085BD809141
:105260006E00816080936E001092810080918100B9
:1052700082608093810080918100816080938100B1
:10528000809180008160809380008091B100846073
:105290008093B1008091B00081608093B0008091D4
:1052A0007A00846080937A0080917A008260809393
:1052B0007A0080917A00816080937A0080917A00F0
:1052C000806880937A001092C10061E082E10E94C0
:1052D0001F0560E083E10E941F0561E081E10E94FB
:1052E0001F0561E080E10E941F0561E08EE00E94E1
:1052F0001F0561E08FE00E941F0561E089E00E94C8
:105300001F0562E082E00E941F0562E083E00E94C8
:105310001F0561E085E00E941F0561E086E00E94B4
:105320001F0561E087E00E941F0561E088E00E94A0
:105330001F0561E084E00E941F0561E08FE00E948C
:10534000F10460E082E10E94F10460E080E10E94EB
:10535000F10460E08EE00E94F10460E081E10E94CF
:10536000F10461E089E00E94F10461E085E00E94BF
:10537000F10460E086E00E94F10460E087E00E94B2
:10538000F10460E088E00E94F10460E088E00E949F
:10539000F10460E085E00E94F10461E087E00E9492
:1053A000F10462E370E080E090E00E945F0761E05A
:1053B00088E00E94F10460E087E00E94F10462E36B
:1053C00070E080E090E00E945F0760E088E00E946B
:1053D000F10461E085E00E94F10461E087E00E9451
:1053E000F10462E370E080E090E00E945F0761E01A
:1053F00088E00E94F10460E087E00E94F10462E32B
:1054000070E080E090E00E945F0760E088E00E942A
:10541000F10480910501811104C060E085E00E94E3
:10542000F1040E94661690E080E0FC01E051FE4F1E
:105430002081FC01EA5EFD4F2083019686329105B2
:10544000A1F7E0916004F091610482E08083E09133
:105450005C04F0915D041082E0915E04F0915F04C1
:105460008FEC808310926804E0916404F0916504ED
:1054700086E08083E0916204F09163048081806122
:105480008083E0916204F09163048081886080836E
:10549000E0916204F0916304808180688083E091F0
:1054A0006204F091630480818F7D808383E0809328
:1054B000EE018DED94E09093ED018093EC0162E0BC
:1054C00082E00E941F0562E083E00E941F051092A7
:1054D000EB011092EA0186E598E090930701809332
:1054E0000601809169008C7F826080936900E89A50
:1054F00080911E05882321F089E195E00E946711C3
:105500001092FA041092F8041092F5041092F40428
:105510008AE08093F3040E9491078B0161E08091FF
:10552000F3040E941F0561E08091F3040E94F104DE
:10553000FFB6F8948091EF01811127C0EFE9F6E002
:105540008491E1E8F6E09491E82FF0E0EE0FFF1F80
:10555000ED52FB4FA591B491EC91E92321F461E068
:105560008AE00E94F10461E08AE00E941F058CB588
:1055700080618CBD8CB580648CBD61E08DE00E9443
:105580001F0561E08BE00E941F058091EF018F5F96
:105590008093EF01FFBE82E58093ED041092EE044C
:1055A0008091ED049091EE040E94F1083AE0F32E10
:1055B0008FEF0E94CC08FA94F110FACF8FEE94E0AE
:1055C0000E94F40820E030E0A90160E08FEE94E052
:1055D0000E940A09F82E8093F90481E0F816E9F098
:1055E0000E949107601B710B613D774058F381E089
:1055F0008093F4048FEE94E00E94C10846E950E0E5
:1056000060E070E082E390E00E945B0564EF71E08F
:1056100080E090E00E945F07F1CF2AEA31E040E0AD
:1056200050E068E08FEE94E00E940A0982FF2AC0F1
:10563000F092FA048091FA04C12CD12C76018230C8
:1056400029F4C12CD12CE12C90E4F92E20E030E09B
:10565000A90167E38FEE94E00E940A09A701960171
:1056600069E28FEE94E00E940A098093F90488238E
:10567000D1F00E949107601B710B613D774030F3C0
:1056800088E0B6CF24E0F22E0E94D3088093F9047C
:10569000FA94F110F9CF8A3A11F082E0A9CF82E0B2
:1056A0008093FA04C7CF8091FA048230D1F420E0CD
:1056B00030E0A9016AE38FEE94E00E940A09882392
:1056C00011F086E095CF0E94D308807C803C19F4CD
:1056D00083E08093FA040E94D3080E94D3080E94BA
:1056E000D3088FEE94E00E94C10880E58093ED041A
:1056F0001092EE0481E00E94290B882309F4EBC08C
:1057000089E195E00E94E00D882309F477CF8EE7C8
:1057100091E00E943C1B8111E5C046E950E060E049
:1057200070E082E390E00E945B050E947B160E947D
:105730001C168BE891E00E943C1B8111FDC046E9DC
:1057400050E060E070E082E390E00E945B0581E061
:105750000E943A1864EF71E080E090E00E945F07D9
:1057600042E350E060E070E085E091E00E945B057C
:1057700066E970E080E090E00E945F0742E350E05D
:1057800060E070E085E191E00E945B0566E970E011
:1057900080E090E00E945F0742E350E060E070E04C
:1057A00085E091E00E945B0566E970E080E090E0B2
:1057B0000E945F0744EF51E060E070E08DE591E00A
:1057C0000E945B056AEF70E080E090E00E945F0756
:1057D00042E350E060E070E085E091E00E945B050C
:1057E00066E970E080E090E00E945F0744E853E0E3
:1057F00060E070E08DE591E00E945B0568EE73E08B
:1058000080E090E00E945F0780E00E943A180E94CA
:10581000521600E280E0E82E80E0F82E0E94420856
:10582000882309F4E1C00E941F08182F45E050E0CA
:1058300060E070E08EEE92E00E945B0580913C0299
:10584000811102C00E943A1811160CF0F3C0809129
:105850003C02882309F4FAC0113009F0D1C010923B
:105860003C0210926F0061E088E00E94F10460E069
:1058700087E00E94F10462E370E080E090E00E9423
:105880005F0760E088E00E94F10468E971E0CE0102
:1058900001960E94EC176EE771E0CE014C960E94D3
:1058A000EC1741E0BE016F5F7F4FCE014C960E9426
:1058B000E61CCE014C960E942217CE0101960E9452
:1058C00022170E947B160E941C1680E00E943A1844
:1058D0000E946616AFC080E00E94290B882309F45D
:1058E0008DCE0ECF41E06EE771E0CE0101960E94B1
:1058F000E31BCE0101960E94701300E010EF882395
:1059000009F40BCFCE0101960E948513892B79F003
:10591000CE0101960E94FF13682FC8010E94BF1597
:105920000F5F1F4F79F7CE0101960E942A17CE0113
:1059300001960E942A17F9CE41E06BE871E0CE0192
:1059400001960E94E31BCE0101960E94701312E0A3
:10595000882309F4F4CE02E068E771E0CE014C96AA
:105960000E94EC17CE0101960E94FF139C01205368
:1059700031092A303105E0F48AA31BA2E8A0F9A07E
:105980008FEFE81AF80AB701CE014C960E943C1737
:10599000882341F32C8D3D8D88A199A1BE016E5DB8
:1059A0007F4F820F931F0E940132F9A2E8A2DACF43
:1059B0008C8D9D8D40E0009719F00E948D2E462F12
:1059C000612F802F0E94D115CE014C960E94221784
:1059D0000F5F083209F61F5F1A3109F0BCCFCE0104
:1059E00001960E942A17B3CE80E594E00E94F0034E
:1059F000892B01F180E594E00E94CE03182F24CF7B
:105A000060E087E00E94F10480E092E00E948B1643
:105A1000D82E612F81E092E00E94BF158EEFD8163C
:105A200029F061E080E092E00E94BF1561E087E02C
:105A30000E94F104E114F10409F4F0CE0E94FC0389
:105A4000882309F4EBCE0E940000E8CE1B3089F1D8
:105A50009CF41830A9F01A3009F43ACFE0910A0109
:105A6000F0E0E051FE4F108380910A018532B8F4D6
:105A700080910A018F5F11C01D30C1F01F3771F78F
:105A8000E0910A01F0E0E051FE4F008380910A01AD
:105A9000823028F080910A01815080930A01E091C0
:105AA0000A01F0E0E051FE4F10821DC00E94D61D99
:105AB000C1CF90E080E0FC01EA5EFD4F2081FC0157
:105AC000E051FE4F2083019686329105A1F780E0D8
:105AD000E82FF0E0E051FE4F9081992311F08F5FA5
