:100000000C9456030C94A8290C9481290C947E031B
:100010000C947E030C947E030C947E030C945D2858
:100020000C947E030C947E030C947E030C947E034C
:100030000C947E030C94CF290C947E030C947E03C5
:100040000C9437290C947E030C9405290C94DF281A
:100050000C947E030C947E030C947E030C947E031C
:100060000C947E030C947E03455343206B65793AD0
:10007000205175697473204350552070726F6772F8
:10008000616D0068656C70202F203F3A2053686FC7
:10009000777320746869732068656C70207363726D
:1000A00065656E006265747765656E2041444452F3
:1000B00031202620414444523220746F2041444470
:1000C0005233206F6E006D6F76652041444452318B
:1000D0002041444452322041444452333A204D6F2F
:1000E0007665732062797465730072756E3A204587
:1000F0007865637574657320636F646520696E202D
:100100006D656D6F72790066726F6D204144445267
:100110003120746F20414444523220746F2046498C
:100120004C4500736176652041444452312041447E
:100130004452322046494C453A205361766573203B
:100140006D656D6F7279006C6F61642046494C4536
:1001500020414444523A204C6F6164732046494C1C
:100160004520617420414444520064656C20464936
:100170004C453A2044656C657465732046494C458E
:10018000006469723A204C697374732066696C6507
:1001900073206F6E20755344206361726400726532
:1001A0007365743A205265736574732074686520B2
:1001B00073797374656D00736C6F773A2053776948
:1001C000746368657320746F20344D487A206D6FB6
:1001D000646500666173743A205377697463686577
:1001E0007320746F20384D487A206D6F6465007AF3
:1001F00038303A20537769746368657320746F20D0
:100200005A383020435055206D6F646500363530C4
:10021000323A20537769746368657320746F2036AF
:1002200035303220435055206D6F6465007465731E
:10023000746D656D3A2052656164732F77726974CD
:10024000657320746F206D656D6F726965730063EF
:100250006C733A20436C6561727320746865207317
:10026000637265656E006C69737420414444523A50
:10027000204C69737473206D656D6F72792066729E
:100280006F6D204144445200307841444452204232
:100290005954453A20577269746573204259544540
:1002A0002061742041444452002028416C6C206E2F
:1002B000756D62657273206D757374206265206858
:1002C000657861646563696D616C29002020202078
:1002D00020202020415641494C41424C4520434F6B
:1002E0004D4D414E44533A0054686520427974653F
:1002F0002041747469632773204345524245525527
:100300005320323038302028746D29003F00686552
:100310006C70006D6F766500736176650072756E46
:10032000006C6F61640064656C0064697200736CDA
:100330006F770066617374007265736574007A3854
:1003400030003635303200746573746D656D00634E
:100350006C73006C697374004F4B002020202020C8
:100360000034204D487A0038204D487A0036353028
:10037000322C2000205A38302C2000202020202031
:1003800020434552424552555320323038303A20AE
:10039000004665656C2074686520706F7765722013
:1003A0006F662044757463682064657369676E21A5
:1003B00021004F6F70732C20696E76616C69642028
:1003C000616464726573732072616E6765210054A5
:1003D00068652066696C6520616C7265616479206E
:1003E000657869737473210050726573732061209E
:1003F0006B657920746F207363726F6C6C2C204571
:10040000534320746F2073746F70004F6F70732CA0
:10041000206D697373696E6720616E206F706572FD
:10042000616E642121004F6F70732C20636F756CB7
:10043000646E2774206F70656E207468652066692D
:100440006C65004F6F70732C2066696C6520646F5B
:1004500065736E2774207365656D20746F206578F1
:10046000697374004461726E2C20756E7265636FDF
:10047000676E697A656420636F6D6D616E640041BB
:100480006C72696768742C20646F6E652100486522
:10049000726520776520676F212048616E67206F45
:1004A0006E2E2E2E007C3C3E5E2B3D3F2F5B5D3B37
:1004B0002C2A225C000000000023002600290000F6
:1004C0000000080002010000030407000000000013
:1004D00000000000000000240027002A00000000A7
:1004E00000000000010000000000096000000000A2
:1004F000000071310000007A736177320000637888
:1005000064653433000020766674723500006E62D4
:10051000686779360000006D6A75373800002C6B0B
:10052000696F303900002E2F6C3B702D00000027C2
:10053000005B3D000000000D5D005C00000000005D
:100540000000007F000031003437000000302E3200
:100550003536381B00002B332D2A390000000000EF
:10056000000000000000000000000000010000008A
:100570000000097E00000000000051210000005A28
:10058000534157400000435844452423000020565F
:100590004654522500004E424847595E0000004D27
:1005A0004A55262A00003C4B494F292800003E3F6F
:1005B0004C3A505F00000022007B2B000000000D31
:1005C0007D007C00000000000000007F0000310082
:1005D0003437000000302E323536381B00002B3304
:1005E0002D2A39000000000000000000000000007B
:1005F00000000000000000000000000000000000FB
:1006000000000000000000000000000000000000EA
:1006100000000000000000000000000000000000DA
:1006200000000000000000000000000000000000CA
:1006300000000000000000000000000000000000BA
:1006400000000000000000000000000000000000AA
:10065000000000000000000000000000000000009A
:10066000000000000000000000000000000000008A
:10067000000000000000000102040810204080017A
:1006800002040810200102040810200000000025C8
:100690000028002B000404040404040404020202E1
:1006A00002020203030303030302F62911241FBEFF
:1006B000CFEFD8E0DEBFCDBF25E0AAE9B1E001C0B1
:1006C0001D92A933B207E1F711E0A0E0B1E0EAE73B
:1006D000F6E602C005900D92AA39B107D9F713E0EA
:1006E000C6E5D3E004C02197FE010E940B31C53559
:1006F000D107C9F70E943E2A0C943B330C940000AA
:10070000DC0114962D913C911597232B41F0ED912E
:10071000FC9181E09081992319F080E0089581E0B7
:1007200008950895AF92BF92CF92DF92EF92FF9219
:100730000F931F93CF93DF936C017B018B01040F09
:10074000151FEB015E01AE18BF08C017D10759F0A5
:100750006991D601ED91FC910190F081E02DC601E7
:100760000995892B79F7C501DF91CF911F910F91E1
:10077000FF90EF90DF90CF90BF90AF900895FC0175
:10078000538D448D252F30E0842F90E0821B930BF6
:10079000541710F0CF96089501970895FC01918D9C
:1007A000828D981761F0A28DAE0FBF2FB11D5D969F
:1007B0008C91928D9F5F9F73928F90E008958FEF41
:1007C0009FEF0895FC01918D828D981731F0828DF5
:1007D000E80FF11D858D90E008958FEF9FEF08954C
:1007E000FC01918D228D892F90E0805C9F4F821BB0
:1007F00091098F73992708958BE494E00E94F00388
:1008000021E0892B09F420E0822F089580E090E018
:10081000892B29F00E94FC0381110C94000008959B
:10082000FC01A48DA80FB92FB11DA35ABF4F2C9165
:10083000848D90E001968F739927848FA689B7895C
:100840002C93A089B1898C91837080648C93938D53
:10085000848D981306C00288F389E02D80818F7DF6
:1008600080830895EF92FF920F931F93CF93DF93AE
:10087000EC0181E0888F9B8D8C8D98131AC0E889DC
:10088000F989808185FF15C09FB7F894EE89FF89AB
:100890006083E889F98980818370806480839FBF49
:1008A00081E090E0DF91CF911F910F91FF90EF9049
:1008B0000895F62E0B8D10E00F5F1F4F0F73112759
:1008C000E02E8C8D8E110CC00FB607FCFACFE88994
:1008D000F989808185FFF5CFCE010E941004F1CF08
:1008E000EB8DEC0FFD2FF11DE35AFF4FF0829FB708
:1008F000F8940B8FEA89FB8980818062CFCFCF93F8
:10090000DF93EC01888D8823B9F0AA89BB89E88937
:10091000F9898C9185FD03C0808186FD0DC00FB6DD
:1009200007FCF7CF8C9185FFF2CF808185FFEDCF5B
:10093000CE010E941004E9CFDF91CF91089583305A
:1009400081F028F4813099F08230A9F00895873041
:10095000A9F08830C9F08430B1F4809180008F7D97
:1009600003C0809180008F7780938000089584B5C4
:100970008F7784BD089584B58F7DFBCF8091B000C3
:100980008F778093B00008958091B0008F7DF9CF6C
:10099000CF93DF93282F30E0F901E154FB4F84918E
:1009A000F901E958F94FD491F901EB56F94FC49187
:1009B000CC23A1F081110E949F04EC2FF0E0EE0FF8
:1009C000FF1FEB54FB4FA591B491EC91ED2381E017
:1009D00090E009F480E0DF91CF91089580E090E00D
:1009E000FACF1F93CF93DF93282F30E0F901E15422
:1009F000FB4F8491F901E958F94FD491F901EB5675
:100A0000F94FC491CC23A9F0162F81110E949F04A5
:100A1000EC2FF0E0EE0FFF1FE557F94FA591B491D1
:100A20008FB7F894EC91111108C0D095DE23DC93B8
:100A30008FBFDF91CF911F910895DE2BF8CFCF9319
:100A4000DF9390E0FC01E958F94F24918B56994FC0
:100A5000FC0184918823C9F090E0880F991FFC0164
:100A6000ED52FB4FA591B491FC01E557F94FC591AB
:100A7000D49161110DC09FB7F8948C912095822379
:100A80008C938881282328839FBFDF91CF9108957D
:100A9000623051F49FB7F8943C91822F8095832364
:100AA0008C93E8812E2BEFCF8FB7F894EC912E2BFF
:100AB0002C938FBFEACF4F925F926F927F928F926B
:100AC0009F92AF92BF92CF92DF92EF92FF920F93DD
:100AD0001F93CF93DF9300D000D01F92CDB7DEB726
:100AE0008C0149835A836B837C8380910C01843011
:100AF000C9F08F3F09F496C00F900F900F900F90A0
:100B00000F90DF91CF911F910F91FF90EF90DF90A9
:100B1000CF90BF90AF909F908F907F906F905F909D
:100B20004F900895E9EAF6E084918D8387FDE4CF44
:100B300061E084E00E941F058D81882321F09D8162
:100B4000923009F023C14801B12CA12C60E072E180
:100B50008AE790E0A50198010E94EC3029013A0152
:100B600068E478EE81E090E0A50198010E94EC3005
:100B700069017A0181E0C81AD108E108F1089D8174
:100B8000992309F469C1923009F070C18FEFC8163A
:100B9000D104E104F10409F00CF46AC164E274EFD9
:100BA00080E090E0A50198010E94EC3069017A0193
:100BB00091E0C91AD108E108F10885E09FEFC91654
:100BC000D104E104F10439F130F162E17AE780E027
:100BD00090E0A50194010E94EC3069017A0181E066
:100BE000C81AD108E108F10886E09FEFC916D104C0
:100BF000E104F10481F07CF0730162012AE0F594D4
:100C0000E794D794C7942A95D1F781E0C81AD10800
:100C1000E108F10887E09091B100987F892B8093DB
:100C2000B1008DC084E080930C01E9EAF6E0949174
:100C30009D839F3F09F460CF913029F158F09230A5
:100C400009F43FC09D8197FD57CF61E084E00E9489
:100C50001F0575CF14BC15BC84B5826084BD85B5F5
:100C6000816085BDE9E9F6E0E491F0E0EE0FFF1F59
:100C7000E557F94F85919491EBE7F6E0E491E09325
:100C80003E021D8255CF109280001092810080910B
:100C900081008860809381008091810081608093D1
:100CA0008100E9E9F6E0E491F0E0EE0FFF1FE5577F
:100CB000F94F85919491EBE7F6E0E491E0933D02E2
:100CC00037CF1092B0001092B1008091B0008260D6
:100CD0008093B0008091B10081608093B100E9E918
:100CE000F6E0E491F0E0EE0FFF1FE557F94F859134
:100CF000949190933C0280933B02EBE7F6E0E49101
:100D0000E0933A0215CF62E17AE780E090E0A50136
:100D100094010E94EC3069017A0181E0C81AD1087F
:100D2000E108F1089FEFC916D104E104F10411F0C4
:100D30000CF082C094E085B5887F892B85BDD801F1
:100D4000AA0FBB1F29813A814B815C810E948730A9
:100D500028EE33E040E050E00E9465308D81813024
:100D600009F448C0823009F457C08111C5CEC7BC10
:100D700020934702309348024093490250934A021D
:100D800080916E00826080936E00B6CEB12CA12C53
:100D900060E072E18AE790E0A50198010E94EC30E2
:100DA00069017A0181E0C81AD108E108F108C1148B
:100DB000D10491E0E906F10464F491E08D81813081
:100DC00009F0BDCF80918100887F892B80938100BD
:100DD000B6CF68E478EE81E090E0A50198010E942A
:100DE000EC3069017A0181E0C81AD108E108F10804
:100DF00093E0E4CFD0928900C09288002093430210
:100E000030934402409345025093460280916F0014
:100E1000826080936F0070CEC092B30020933F0237
:100E200030934002409341025093420280917000FF
:100E300082608093700060CE730162019AE0F59445
:100E4000E794D794C7949A95D1F791E0C91AD1083D
:100E5000E108F10895E06FCF9FEFC916D104E104D6
:100E6000F10411F00CF04FCF93E065CF84E0A6CEF3
:100E700084E0D1CE3FB7F8948091E0019091E101F8
:100E8000A091E201B091E30126B5A89B05C02F3FD8
:100E900019F00196A11DB11D3FBFBA2FA92F982FA0
:100EA0008827BC01CD01620F711D811D911D42E09B
:100EB000660F771F881F991F4A95D1F708958F9263
:100EC0009F92AF92BF92CF92DF92EF92FF924B012F
:100ED0005C010E943A076B017C010E943A076C1981
:100EE0007D098E099F09683E734081059105A8F32D
:100EF00021E0821A9108A108B10888EEC80E83E0AB
:100F0000D81EE11CF11C81149104A104B10429F73D
:100F1000FF90EF90DF90CF90BF90AF909F908F9019
:100F200008952FB7F8946091DC017091DD018091F4
:100F3000DE019091DF012FBF089508950F931F9355
:100F4000CF932091E6013091E701B90168577F4FB7
:100F5000A9014E5E5E4F9091D601D901A05FBE4FB0
:100F60008091E401E091E5018E1307C09093D601D2
:100F700080E0CF911F910F9108958F5F8D3208F01F
:100F800080E0E82FF0E0E755FE4FE0818093E40138
:100F9000EE2361F3E03F11F49160E2CFE03E11F403
:100FA0009260DECF90FF0FC0E23119F49B7F9C7FEF
:100FB000D7CFE93511F4977FFACFE131C1F791FF2F
:100FC000F6CF9F7EF4CFE23111F49460C9CFE935BA
:100FD00011F49860C5CFE13111F491FD9061C92FF2
:100FE000CC7F91FF10C0EA54E43310F09C2FB8CFAF
:100FF000F0E0ED5EFE4F80819C2F882309F4B0CF96
:10100000C093D601B6CF94FF0CC00D911C911197DF
:10101000012B39F0E83850F7E40FF52FF11D8491DA
:10102000EBCF9C7031F0E83808F7E60FF72FF11D91
:10103000F6CFE838D8F6E20FF32FF11DF0CF80910C
:10104000D801882321F01092D80190E00895809172
:10105000D701882379F01092D70187FF0EC0982F0F
:101060009F7390689093D80182958695869583703A
:10107000806CEBCF0E949E07F0CF8111E6CF8FEFFF
:101080009FEF08958091D70181110EC08091D80102
:1010900081110AC00E949E07982F8093D70181E09A
:1010A000911103C080E0089581E00895CF92DF920E
:1010B000EF92FF920F931F93CF93DF938091E801FC
:1010C0000E94C804EC010E9491070091A5011091B3
:1010D000A6012091A7013091A8016B017C01C01AE3
:1010E000D10AE20AF30A970186010B3F1105210597
:1010F000310520F01092A4011092A3016093A50184
:101100007093A6018093A7019093A8018091A401F8
:101110009FEF980F983050F4DD2701C0CC0F9A95BF
:10112000EAF79091A301C92BC093A3018F5F80932D
:10113000A4018B30B9F48091E5018F5F8D3208F006
:1011400080E09091E401981749F0E82FF0E0909149
:10115000A301E755FE4F90838093E5011092A4010F
:101160001092A301DF91CF911F910F91FF90EF900B
:10117000DF90CF9008958FB7F89480919D018FBF35
:10118000089561E0FC0184810E94F10480919C013A
:10119000811110929C0108958EBD00000DB407FED0
:1011A000FDCF8EB508958FEF0C94CC080F931F934D
:1011B000CF93DF93EC010E9491078B010E94D3082B
:1011C0008F3F69F00E949107601B710B6C177D07C0
:1011D000A8F380E0DF91CF911F910F91089581E0F6
:1011E000F9CF8CBD9DBD0895CF93DF93EC01809125
:1011F0009C01811109C081E080939C018091E804E9
:101200009091E9040E94F10860E08C81DF91CF9118
:101210000C94F1048F929F92AF92BF92FF920F9322
:101220001F93CF93DF93EC01F62E49015A018E8173
:10123000882389F08F8198859C012F5F3F4F3887E5
:101240002F838230924018F40E94D308F3CFCE014E
:101250000E94C1081E82CE010E94F4088CE291E037
:101260000E94D6088F2D80640E94CC0808E110E00F
:10127000D501C401002E04C0B695A7959795879512
:101280000A94D2F70E94CC0808501109083F8FEF4A
:10129000180771F785E9FF2021F028E087E8F212AE
:1012A0008FEF0E94CC0810E00E94D3088A8787FF46
:1012B00004C01F3F11F01F5FF7CFDF91CF911F9147
:1012C0000F91FF90BF90AF909F908F900895AF9235
:1012D000BF92CF92DF92EF92FF920F931F93CF9323
:1012E000DF93EC016901C801820F931F81309240A6
:1012F00050F58E81882379F088819981AA81BB81FC
:1013000084179507A607B70731F48F819885C8160B
:10131000D90608F042C0488359836A837B838B8552
:10132000833039F089E0440F551F661F771F8A9577
:10133000D1F79A01AB0161E1CE010E940A0988232D
:1013400089F083E08D83CE010E94C10880E0DF91A7
:10135000CF911F910F91FF90EF90DF90CF90BF90B2
:10136000AF9008950E9491075B010E94D3088A877D
:101370008F3F69F40E9491076A197B096D327140B1
:10138000A0F38FE08D83CE010E94C108DCCF8E3F99
:1013900089F418861F8281E08E838F8198858C1551
:1013A0009D0550F40E94D3088F81988501969887F7
:1013B0008F83F3CF8DE0E6CF6701E00EF11E0E9430
:1013C000D308F60181936F01EE15FF05C1F78F81F8
:1013D0009885080F191F18870F838985882319F0AE
:1013E00001151240A0F08E81882389F08F819885A5
:1013F0009C012F5F3F4F38872F838230924018F433
:101400000E94D308F3CFCE010E94C1081E8281E062
:101410009ECFCF92DF92EF92FF920F93CF93DF9305
:10142000EC01690182E1411551056105710599F0F1
:101430008B85833039F089E0440F551F661F771F75
:101440008A95D1F79A01AB0168E1CE010E940A09A1
:10145000882319F084E08D832DC08EEF0E94CC0884
:1014600076018EEFD81AF70181917F010E94CC0896
:10147000EC14FD04C1F78FEF0E94CC088FEF0E949F
:10148000CC080E94D3088A878F71853071F40111CE
:1014900016C0CE010E94C10881E0DF91CF910F916B
:1014A000FF90EF90DF90CF90089581E18D83CE0182
:1014B0000E94C108CE010E94C10880E0EECF88E5FD
:1014C00092E00E94D608811102C085E1C4CF20E0DD
:1014D00030E0A9016DE0CE010E940A09882311F0D5
:1014E00084E1B9CF0E94D3088111FACFD2CF0F93F4
:1014F00040919F015091A0016091A1017091A201C2
:10150000411551056105710599F0082F2BE432E072
:1015100080911202909113020E94090A882349F0D7
:1015200010929F011092A0011092A1011092A201AD
:1015300081E00F9108950F93CF93C82F80919E0162
:10154000811105C0C1E08C2FCF910F91089540917A
:1015500001015091020160910301709104010C2F6F
:101560002BE432E080911202909113020E94090A4A
:10157000811102C0C0E0E7CFCC2321F381E00E94BB
:10158000770A8823B9F310929E01DDCF8F929F9244
:10159000AF92BF92EF92FF920F931F93CF934B01A5
:1015A0005C01C42F8091010190910201A09103017F
:1015B000B091040188159905AA05BB0551F181E098
:1015C0000E949B0A81110BC080E0CF911F910F9167
:1015D000FF90EF90BF90AF909F908F9008958BE415
:1015E000E82E82E0F82E00E012E030E020E0B501C5
:1015F000A40180911202909113020E94670988232E
:1016000019F38092010190920201A0920301B0921D
:10161000040140919E014C2B40939E0181E0D5CF67
:10162000CF93DF93EC016E857F858889998941E0AE
:101630000E94C60A882351F08A8920E2829FC00155
:101640001124855B9D4FDF91CF91089590E080E05C
:10165000FACF8F929F92AF92BF92CF92DF92EF928A
:10166000FF92CF932AEE34E03093130220931202BC
:10167000882309F46DC040E060E070E0CB010E9477
:10168000C60A81110BC080E0CF91FF90EF90DF90F0
:10169000CF90BF90AF909F908F9008958091090454
:1016A0008F7789F78091150490911604A091170403
:1016B000B091180484369105A105B10520F3C090BE
:1016C0001104D0901204E0901304F0901404C1149B
:1016D000D104E104F104B9F240E0C701B6010E946F
:1016E000C60A882381F28091560290915702811593
:1016F000924049F6A0915B02AA2329F26091590217
:1017000070915A026115710509F4BDCF20915802FC
:10171000222309F4B8CFA09308052093FA0490E09F
:1017200080E030E0E1E0F0E0C82FAF01082E02C019
:10173000440F551F0A94E2F72417350769F041E07A
:10174000480F01968930910579F7409303059BCFA7
:10175000C12CD12C7601C0CF80930305209161026A
:101760003091620250E040E02115310541F42091B2
:101770006F02309170024091710250917202209379
:10178000FB043093FC044093FD045093FE04460197
:101790005701860E971EA11CB11C809209059092DC
:1017A0000A05A0920B05B0920C05E0915C02F09145
:1017B0005D02F0930F05E0930E05B0E00E948730C4
:1017C000DC01CB01880D991DAA1DBB1D809310055E
:1017D00090931105A0931205B093130525E0EE0F29
:1017E000FF1F2A95E1F7E150FE4FEF2FFF27E69507
:1017F0008E0F9F1FA11DB11D8093040590930505B9
:10180000A0930605B093070580905E0290905F025A
:10181000B12CA12C8114910441F480906B02909022
:101820006C02A0906D02B0906E02C81AD90AEA0A42
:10183000FB0AC80CD91CEA1CFB1C04C0F694E794F4
:10184000D794C794CA95D2F7C092FF04D0920005EE
:10185000E0920105F092020585EFC8168FE0D806E8
:10186000E104F10428F48CE080930D0581E00CCFB5
:1018700080E125EFC2162FEFD206E104F104A0F3B8
:101880008091770290917802A0917902B0917A02CA
:101890008093100590931105A0931205B093130542
:1018A00080E2E2CF4F925F926F927F928F929F92EF
:1018B000AF92BF92CF92DF92EF92FF920F931F935E
:1018C000CF93DF93EC01423051056105710590F42F
:1018D00080E0DF91CF911F910F91FF90EF90DF900B
:1018E000CF90BF90AF909F908F907F906F905F90C0
:1018F0004F90089589859A85AB85BC850196A11D79
:10190000B11D84179507A607B70710F3CB88DC88AD
:10191000ED88FE888F89803109F042C0BB27A72F50
:10192000962F852F480159012A013B01C80ED91E67
:10193000EA1EFB1E8091010190910201A09103011A
:10194000B0910401C816D906EA06FB0699F58F89FD
:101950008031C1F5B301A201552766277727440FCF
:10196000551F455B5D4FFA019182808280919E01F7
:10197000816080939E018A89823080F08D819E8172
:10198000AF81B8858C0D9D1DAE1DBF1D80939F013D
:101990009093A001A093A101B093A20181E099CFFF
:1019A000DB01CA01E7E0B695A79597958795EA957B
:1019B000D1F7B8CF40E0C701B6010E94C60A811135
:1019C000C6CF86CFB301A2014F7755276627772769
:1019D000440F551F440F551F455B5D4FFA01808230
:1019E0009182A282B382C2CF8F929F92AF92BF9216
:1019F000CF92DF92EF92FF920F931F93CF93DF93DB
:101A0000FC0181859285A385B4850196A11DB11D38
:101A100084179507A607B70770F480E0DF91CF9190
:101A20001F910F91FF90EF90DF90CF90BF90AF90FC
:101A30009F908F90089583889488A588B688878919
:101A4000803189F5BB27A72F962F852FE9016A01E1
:101A50007B018F01BC01CD01680D791D8A1D9B1D85
:101A60008090010190900201A0900301B0900401C8
:101A700086169706A806B90601F5F8018789803110
:101A800011F5DD24EE24FF24F601EE0FFF1FE55BC8
:101A9000FD4F80819181B0E0A0E088839983AA8383
:101AA000BB8381E0BBCFDB01CA01C7E0B695A79538
:101AB00097958795CA95D1F7C9CF40E00E94C60A8D
:101AC0008111DBCFAACFE894C7F8DD24EE24FF24F0
:101AD000F601EE0FFF1FEE0FFF1FE55BFD4F80814C
:101AE0009181A281B381BF70D8CF4F925F926F92E4
:101AF0007F92AF92BF92CF92DF92EF92FF920F93BD
:101B00001F93CF93DF9300D000D0CDB7DEB78C0109
:101B100049835A836B837C835901C12CD12C760174
:101B2000412C82E0582E612C712C49815A816B81A5
:101B30007C819E012F5F3F4FC8010E94F40C8823D7
:101B400039F1F8018585A301920104C0220F331FEA
:101B5000441F551F8A95D2F7DA01C901C80ED91E54
:101B6000EA1EFB1E49815A816B817C818789803105
:101B700011F188EF9FEFAFEFBFE0481759076A07F1
:101B80007B0798F2F501C082D182E282F38281E084
:101B90000F900F900F900F90DF91CF911F910F91A9
:101BA000FF90EF90DF90CF90BF90AF907F906F90BD
:101BB0005F904F90089588EF9FEFA0E0B0E0DDCFF9
:101BC000CF93DF93FC012581222321F080E0DF9178
:101BD000CF910895EC0180910D05803159F582E097
:101BE0008583178A108E118E128E80910E0590912A
:101BF0000F05B0E0A0E025E0880F991FAA1FBB1FCA
:101C00002A95D1F7838B948BA58BB68B86EF94E0C6
:101C10009C8F8B8F81E08C831E821F821886198691
:101C20001A861B861C861D861E861F86188A198AA0
:101C30001A8ACDCF803251F683E08583409110051A
:101C4000509111056091120570911305478B508FCB
:101C5000618F728F9F012D5E3F4F86EF94E00E944F
:101C6000750D8111D3CFB2CF8F929F92AF92BF9259
:101C7000CF92DF92EF92FF920F931F93CF93DF9358
:101C8000EC018D8181110EC080E0DF91CF911F9119
:101C90000F91FF90EF90DF90CF90BF90AF909F900B
:101CA0008F9008950B891C892D893E89041715078B
:101CB0002607370748F34A015B01823031F48A86F0
:101CC0009B86AC86BD8681E0E0CF81149104A1049F
:101CD000B10449F41E821F82188619861A861B8653
:101CE0001C861D86F0CF0A851B852C853D85EB8DD6
:101CF000FC8D858590E00996B901A80141505109F4
:101D000061097109082E04C0769567955795479526
:101D10000A94D2F775016401E1E0CE1AD108E10816
:101D2000F10804C0F694E794D794C7948A95D2F743
:101D3000C416D506E606F70620F0012B022B032B6E
:101D400011F58F89988DA98DBA8D8E839F83A88771
:101D5000B9878E010A5F1F4FC114D104E104F10459
:101D600009F4ADCF4E815F816885798598018B8DAF
:101D70009C8D0E94F40C91E0C91AD108E108F10889
:101D80008111EACF81CFC41AD50AE60AF70AE1CF5A
:101D90003F924F925F926F927F928F929F92AF92FB
:101DA000BF92CF92DF92EF92FF920F931F93CF9348
:101DB000DF93CDB7DEB72C970FB6F894DEBF0FBE1A
:101DC000CDBF5C01DC015B968D909C905C97169674
:101DD0004D905D906D907C90199741145104610471
:101DE000710409F468C0BFEF4B1A5B0A6B0A7B0AE7
:101DF000312CF40181859285A385B4859C01AD01C8
:101E00002F5F3F4F4F4F5F4F29873A874B875C8744
:101E1000730162011D821E821F821886F401818572
:101E20009285A385B4852D813E814F8158852817E1
:101E300039074A075B0708F056C089859A85AB8544
:101E4000BC858C159D05AE05BF0550F482E0C82EFB
:101E5000D12CE12CF12C92E0492E512C612C712CCB
:101E60009E012F5F3F4FB701A601C4010E94F40CF1
:101E70008823C9F189819A81AB81BC81892B8A2B06
:101E80008B2B09F1260137019FEF491A590A690A7C
:101E9000790A2D813E814F8158852F5F3F4F4F4FEB
:101EA0005F4F2D833E834F8358873FEFC31AD30A7A
:101EB000E30AF30AB3CFF40140805180628073805B
:101EC0003324339496CFC414D504E604F70409F7F9
:101ED0000FEF1FEF2FEF3FE0B701A601C4010E94F3
:101EE000520C811119C080E02C960FB6F894DEBF19
:101EF0000FBECDBFDF91CF911F910F91FF90EF905B
:101F0000DF90CF90BF90AF909F908F907F906F9019
:101F10005F904F903F900895D50116964D915D9139
:101F20006D917C911997411551056105710539F045
:101F300097018601C4010E94520C8823A1F2D501A9
:101F40001696CD92DD92ED92FC921997332051F0C6
:101F5000D701C6010196A11DB11DF40180839183B3
:101F6000A283B383F5018789908DA18DB28D892BD2
:101F70008A2B8B2B39F48481C78AD08EE18EF28E26
:101F800080688483F50184818062848381E0ACCFA2
:101F90002F923F924F925F926F927F928F929F9279
:101FA000AF92BF92CF92DF92EF92FF920F931F9367
:101FB000CF93DF93EC015B012A018D81811115C064
:101FC0008FEF9FEFDF91CF911F910F91FF90EF90D7
:101FD000DF90CF90BF90AF909F908F907F906F9049
:101FE0005F904F903F902F9008958C8180FFE8CFB5
:101FF0000B891C892D893E894A855B856C857D8589
:10200000C201B0E0A0E068017901C41AD50AE60A6D
:10201000F70AC816D906EA06FB0618F42801441A7E
:10202000550A42011E0126E0220E311C8114910442
:1020300009F4B3C04A855B856C857D856A0181E0C2
:10204000D8228B8D9C8D8A019B01E9E036952795DE
:1020500017950795EA95D1F7ED81E230E1F5FC019E
:10206000628D738D848D958D600F711F821F931FFC
:10207000612C22E0722E6C187D088614970408F4F7
:1020800034012C8126FD04C06114F2E07F0671F456
:10209000009101011091020120910301309104018E
:1020A000061717072807390709F053C040E00E94B8
:1020B000C60A882309F484CFC601855B9D4FD501EC
:1020C0009C01260D371DFC012E173F0709F460C047
:1020D00041914D93F9CFFC0174807A947022C11420
:1020E000D10471F471100CC0452B462B472B39F5E8
:1020F0008F89988DA98DBA8D8E839F83A887B98784
:10210000EB8DFC8D6E817F81888599856250710988
:1021100081099109258504C0660F771F881F991FC3
:102120002A95D2F70685178520893189600F711F9E
:10213000821F931F670D711D811D911D99CF4E81C7
:102140005F816885798591010E94F40C8111D8CF57
:1021500037CF750183019601AB01BC01809112025A
:10216000909113020E946709882309F429CFA60CD5
:10217000B71C8A859B85AC85BD85860D971DA11DE5
:10218000B11D8A879B87AC87BD87861897084ECF7D
:10219000281B390BA20EB31EECCFC20113CF1F9325
:1021A000CF93DF93FC012581222371F1162FEC01DF
:1021B000848187FF1EC0CF010E94100BFC01892B78
:1021C00019F18D81823040F48B899C89AD89BE895B
:1021D000848F958FA68FB78F8F89988D938F828FDD
:1021E0008F89988DA98DBA8DB58BA48B8C818F77B3
:1021F0008C83111103C08C818F7E8C83812FDF91A2
:10220000CF911F910C949B0A80E0DF91CF911F9199
:102210000895FF920F931F93CF93DF93EC018D816D
:10222000813041F090E080E0DF91CF911F910F91DC
:10223000FF9008958C8181FFF5CF82FD1BC0009136
:10224000120210911302C8010E94F4080E94D308E0
:10225000F82EC8010E94C1088FEFF812E3CF8C81DD
:1022600085FF1BC060E0CE010E94CF108C818F7D66
:102270008C83D8CF4B895C896D897E898A859B85C3
:10228000AC85BD8584179507A607B707C1F2CE01B7
:102290000E94340E8111D3CFC5CF40919F01509140
:1022A000A0016091A1017091A201452B462B472B03
:1022B00021F080E00E94770AB5CF80618C832A8567
:1022C0003B85317080E092E0821B930BADCFCF93C2
:1022D000DF93EC0161E00E94CF10882311F01D8292
:1022E00081E0DF91CF9108952F923F924F925F92BC
:1022F0006F927F928F929F92AF92BF92CF92DF9216
:10230000EF92FF920F931F93CF93DF9300D000D0F3
:102310001F92CDB7DEB77C015B01342E5D83DC01FB
:1023200015968C911597813009F0CEC014962C909B
:1023300021FECAC022FCB4C0C32CDD8022947FE001
:1023400027222094B22DB1702B2ED7011A964D91D1
:102350005D916D917C911D97C114D10409F428C140
:102360005B968D919C915C97FC0174807A948A01B4
:102370009B0169E036952795179507956A95D1F7E2
:1023800070228A011170711020C001151105E9F445
:1023900016964D915D916D917C911997411551055E
:1023A0006105710509F099C057968D919D910D9029
:1023B000BC91A02D0097A105B10509F0B0C0C701DF
:1023C0000E94C80E882309F47FC080E092E0801B41
:1023D000910B46018C159D0508F44C01D7015B96C5
:1023E0004D915C915C9716968D919D910D90BC914D
:1023F000A02D0297A109B109FA01258504C0880F13
:10240000991FAA1FBB1F2A95D2F746855785608959
:102410007189840F951FA61FB71F9C01AD01270D61
:10242000311D411D511D29013A01811432E09306ED
:1024300009F07BC08091010190910201A0910301FC
:10244000B091040184159505A605B70559F48FEFE1
:102450009FEFDC018093010190930201A09303019F
:10246000B0930401022D9501B301A20180911202E3
:10247000909113020E94090A882331F19EEFB91A44
:10248000C818D908F70182859385A485B585880D7C
:10249000991DA11DB11D82879387A487B58755CF4C
:1024A000F701438954896589768982859385A48556
:1024B000B585481759076A077B0709F43DCFC7015F
:1024C0000E94340E811138CF81E090E0D70113963D
:1024D0009C938E93129780E007C09E012F5F3F4F21
:1024E0000E94F40C811102C090E079C089819A8128
:1024F000AB81BC81F701238D348DF901278948EF29
:102500005FEF60E070E0203121F048EF5FEF6FEFA8
:102510007FE084179507A607B70708F050CFF701AB
:1025200086839783A087B18750CF0115110599F550
:10253000D7011A964D915D916D917C911D9753969F
:102540008D919D910D90BC91A02D481759076A0758
:102550007B0708F181E00E949B0A882309F4B4CF2D
:1025600040920101509202016092030170920401B5
:1025700080919E01816080939E01C801855B9D4F83
:10258000D5019C01280D391DFC012E173F0759F07C
:102590004D914193FACF41E0C301B2010E94C60AB6
:1025A0008111EBCF91CF281B390BA20EB31E68CF40
:1025B000F70183899489A589B68984179507A607A9
:1025C000B70738F48481438B548B658B768B806896
:1025D0008483F701848183FD1AC0832D9D810F9030
:1025E0000F900F900F900F90DF91CF911F910F914F
:1025F000FF90EF90DF90CF90BF90AF909F908F9023
:102600007F906F905F904F903F902F90089561E082
:10261000C7010E94CF10882309F456CFDECFCF9395
:10262000DF931F92CDB7DEB7698341E050E0BE0172
:102630006F5F7F4F0E9474110F90DF91CF910895CB
:10264000FC01DB0112968D919C91139793838283F9
:102650008FE691E09183808314968C911497848304
:1026600015968C911597858316964D915D916D9178
:102670007C91199746835783608771871A964D918D
:102680005D916D917C911D97428753876487758713
:102690001E964D915D916D917C915197468757871C
:1026A000608B718B52968C915297828B53964D9181
:1026B0005D916D917C915697438B548B658B768B96
:1026C00057964D915D916D917C915A97478B508FA4
:1026D000618F728F5B968D919C91948F838F0895FB
:1026E000DC015996ED91FC91309721F081E09581C4
:1026F000911101C080E00895FC01818D928D0097B9
:1027000019F061E00C94CF100895DC015996ED9119
:10271000FC913097B9F083899489A589B68942855F
:10272000538564857585841B950BA60BB70B8115A6
:1027300020E89207A105B10538F08FEF9FE7A0E0F0
:10274000B0E0089590E080E00895DC0159968D9105
:102750009C91009739F0DC01ED91FC910480F581AA
:10276000E02D099490E080E00895CF93DF93EC0191
:10277000E98DFA8D309749F481E090E09B838A835C
:1027800090E080E0DF91CF91089513821282898DCD
:102790009A8D0E947411E98DFA8D22813381232B49
:1027A00059F7F0CFCF93DF931F92CDB7DEB7698390
:1027B000DC01ED91FC910280F381E02D41E050E0DD
:1027C000BE016F5F7F4F09950F90DF91CF91089504
:1027D000CF93DF931F92CDB7DEB741E050E0BE014B
:1027E0006F5F7F4F0E94C80F019731F4898190E09D
:1027F0000F90DF91CF9108958FEF9FEFF9CFFC01FC
:10280000818D928D009711F00C94E8138FEF9FEF5C
:1028100008950F931F93CF93DF93EC01898D9A8DC9
:1028200010E000E0009799F00E94E8138C010F3F40
:10283000100769F0898D9A8DFC0142855385648566
:10284000758541505109610971090E94340EC80112
:10285000DF91CF911F910F910895CF93DF93FB01EB
:1028600022813381DC0113963C932E93129744818D
:1028700055816681778114964D935D936D937C931A
:102880001797408551856285738518964D935D93A2
:102890006D937C931B971C96EF012C969C01275EF1
:1028A0003F4F49914D93A217B307D9F7218D328D30
:1028B000FC01328F218FDF91CF910895FC0124819B
:1028C0003581FB014481558124173507E1F4FC0172
:1028D00080819181FB01608171810097D1F0611548
:1028E0007105A1F4232BC1F0FC01808190E008C0A8
:1028F000232B91F0FB01808190E0919581959109C6
:1029000021E0892B09F020E0822F08950E941C33DA
:10291000F7CF6115710561F721E0F6CF8F929F9295
:10292000AF92BF92CF92DF92EF92FF920F931F93DD
:10293000CF93DF9300D000D0CDB7DEB7FC01858107
:10294000813091F080E00F900F900F900F90DF9109
:10295000CF911F910F91FF90EF90DF90CF90BF909C
:10296000AF909F908F900895848181FFEBCF8389F2
:102970009489A589B689892B8A2B8B2B09F45FC092
:102980007F0140E050E0BA01CF010E94340E88235D
:10299000C9F2F701C38CD48C8788908CA18CB28C3F
:1029A00082E090E0A0E0B0E0F60180839183A28312
:1029B000B3839E012F5F3F4FB501A401C6010E9462
:1029C000F40C882309F4BECF00E010E09801B501B3
:1029D000A401C6010E94520C882309F4B3CF898058
:1029E0009A80AB80BC80F6018789803119F188EF2D
:1029F0009FEFAFEFBFE088169906AA06BB06C8F2A4
:102A0000F701178A108E118E128E138A148A158A76
:102A1000168A84818068848361E0C7010E94CF1098
:102A2000882309F48FCF40E050E0BA01C7010E942B
:102A3000340E89CF88EF9FEFA0E0B0E0DCCF81E0DB
:102A400082CFCF92DF92EF92FF921F93CF93DF93CB
:102A5000EC0180E2689FF0011124E55BFD4F938556
:102A6000917161F0842F827449F080E0DF91CF9101
:102A70001F91FF90EF90DF90CF900895142F6A8BF5
:102A80008091010190910201A0910301B091040194
:102A90008E879F87A88BB98BC488D588F12CE12CB1
:102AA0007601DD24CC24CF8AD88EE98EFA8E828DF1
:102AB000938DB0E0A0E0AC01BD014C295D296E29E9
:102AC0007F294F8B588F698F7A8F83858871B1F4F6
:102AD000848D958DA68DB78D8B8B9C8BAD8BBE8B8E
:102AE00081E08D831F701C831E821F8218861986C9
:102AF0001A861B861C861D8681E0B8CF803109F0BE
:102B0000B4CF9E012D5E3F4F8B8D9C8D0E94750D25
:102B1000882309F4AACF84E0E4CFCF93DF93D82FA2
:102B2000C8E06D2F617082E10E94F104D69561E0EA
:102B300081E10E94F10460E081E10E94F104C15052
:102B400081F7DF91CF910895CF93DF93D92FC62FCF
:102B50000E948D158D2F0E948D158C2FDF91CF91A6
:102B60000C948D150E94A41561E080E10E94F1048F
:102B700060E08FE00E94F10461E08FE00E94F104C8
:102B800060E080E10C94F104E62FE150FF0B9F011F
:102B900098E2929FF001939FF00D112490E08150F4
:102BA0009840642F8E0F9F1F0C94B215CF92DF9226
:102BB000EF92FF920F931F93CF93DF93182F062F5F
:102BC0007A01D0E0C0E08250990B6C01D7011496D5
:102BD0008D919C911597C817D907C0F4C6018C0F29
:102BE0009D1F869770F4ED91FC91309761F41092DF
:102BF0009B01EBE9F1E04081602F8C2F810F0E9457
:102C0000C4152196E3CFEC0FFD1FF5CFDF91CF91D7
:102C10001F910F91FF90EF90DF90CF900895CF9389
:102C2000C2E043E061E08C2F0E94C41543E86EE1EE
:102C30008C2F0E94C41543E06AE18C2F0E94C415BA
:102C4000CF5FC83271F7C1E045E86C2F81E00E9488
:102C5000C41545E06C2F88E20E94C415CF5FCF31C8
:102C600099F7CF910895CF93DF93C2E0D2E040E28D
:102C70006C2F8D2F0E94C415DF5FD832C1F7CF5F54
:102C8000CA31A1F7DF91CF910895CF93DF93D0E0C0
:102C9000C0E0FE01EC5EFD4F40816DE18C2F8E5F48
:102CA0000E94C4152196C632D10599F7DF91CF91C4
:102CB00008958EE3809314021092150282E090E052
:102CC00020E2FC01EC5EFD4F2083019686329105E7
:102CD000C1F781E080930A010C944516CF93DF93EE
:102CE000C0E0D8EF60E2CE010E94B2152196C03B51
:102CF0008CEFD807B9F7DF91CF9108951F93CF9349
:102D0000DF9360E00E94A41561E080E10E94F1047D
:102D100061E08EE00E94F10461E081E10E94F10433
:102D200060E08EE00E94F10460E080E10E94F10426
:102D3000C7E0D0E010E061E081E10E94F10483E1AE
:102D40000E94C8040C2E01C0880F0A94EAF7182BC1
:102D500060E081E10E94F104219768F7812FDF9103
:102D6000CF911F9108950F931F93CF93DF93C4E1E9
:102D7000D2E08C0104511240C8018C0F9D1F0E94AB
:102D80007E168993882351F082E0CA33D807A1F7D1
:102D900080E0DF91CF911F910F91089581E0F9CFED
:102DA0001F93CF93DF93EC010E947E16182FCE0164
:102DB00001960E947E1690E0982F8827810F911D22
:102DC000DF91CF911F910895CF93DF93EC014C8158
:102DD0005D8141155105B1F04617570710F461E0C8
:102DE00070E088819981461B570B5D834C83680F87
:102DF000791F0E942C33E881F9818C819D81E80F35
:102E0000F91F1082DF91CF91089542E050E067E70B
:102E100071E08BE494E00C9492030F931F93CF9393
:102E2000DF938C01EB01FC01808191810097E1F03F
:102E30006881798161157105A9F0428153812C81E6
:102E40003D814217530770F00E9425338C819D818C
:102E5000F801958384831D821C82DF91CF911F919D
:102E60000F9108950E94AD3188819981F801918375
:102E700080838A819B81938382838C819D819583CA
:102E80008483198218821B821A82E5CFFC0180811B
:102E90009181009711F00C94AD310895CF93DF9399
:102EA000EC01898D9A8D009741F00E946711898D00
:102EB0009A8D0E94AD311A8E198EDF91CF910895AF
:102EC0000F931F93CF93DF93EC0188819981009733
:102ED00059F02A813B812617370730F081E0DF91D6
:102EE000CF911F910F9108958B016F5F7F4F0E94CB
:102EF0003632009759F0998388831B830A832C818B
:102F00003D81232B59F7FC011082E8CF80E0E7CF09
:102F1000EF92FF920F931F93CF93DF93EC017B010E
:102F20008A01BA010E94601728813981811114C079
:102F30002115310519F0C9010E94AD31198218829D
:102F40001D821C821B821A82CE01DF91CF911F91BC
:102F50000F91FF90EF9008951D830C83B701C90175
:102F60000E942533F1CFFB0101900020E9F7319752
:102F7000AF01461B570B0C948817FB01DC0111961F
:102F80001C921E9213961C921E92129715961C92DA
:102F90001E9214978617970749F060817181611519
:102FA000710521F0448155810C9488170895EF92A2
:102FB000FF921F93CF93DF9300D000D000D0CDB706
:102FC000DEB77C0112E040E26BE1812F0E94C41564
:102FD0001F5F1832C1F7B701CE0101960E94BD17DD
:102FE000F7012481358186E290E0821B930B969550
:102FF0008795AE014F5F5F4F6BE18E5F0E94D615E4
:10300000CE0101960E94461726960FB6F894DEBFB1
:103010000FBECDBFDF91CF911F91FF90EF9008952C
:10302000FC011182108213821282158214826115B2
:10303000710551F0FB0101900020E9F73197AF01D4
:10304000461B570B0C9488170895EF92FF920F932D
:103050001F93CF93DF93EC018B01198218821B829F
:103060001A821D821C82CB010E94E82F7C01BC01C8
:10307000CE010E94601728813981811113C021156A
:10308000310519F0C9010E94AD31198218821D82E3
:103090001C821B821A82DF91CF911F910F91FF90AA
:1030A000EF900895FD82EC82B801C901DF91CF91C4
:1030B0001F910F91FF90EF900C94E12FCF93DF932E
:1030C00000D000D000D0CDB7DEB781508A3008F0F4
:1030D00056C0E82FF0E0E159F74E0C940B31791807
:1030E00088188B18AA18AD18B018B318B618B918E4
:1030F000BC186EE874E0CE0101960E942518CE013E
:1031000001960E94D717CE0101960E94461719C05A
:103110006FE774E0F0CF64E674E0CE0101960E94A0
:103120002518CE0101960E94D717CE0101960E9464
:10313000461746E950E060E070E082E390E00E94CC
:103140005B0526960FB6F894DEBF0FBECDBFDF91AC
:10315000CF91089563E474E0E0CF66E274E0DDCFE0
:103160006BE074E0DACF68EE73E0C5CF6FEC73E02C
:10317000C2CF62EB73E0BFCF61E973E0BCCF6BE716
:1031800073E0CE0101960E942518AE014F5F5F4F9C
:103190006BE182E00E94D615CE0101960E9446178F
:1031A0008091050164E773E0811102C06DE673E070
:1031B000CE0101960E942518AE014F5F5F4F6BE173
:1031C00087E10E94D615CE0101960E944617809194
:1031D000000167E673E0811102C061E673E0CE0191
:1031E00001960E942518AE014F5F5F4F6BE18DE1A4
:1031F0000E94D615CE0101960E9446176BE573E03A
:10320000CE0101960E942518AE014F5F5F4F6BE122
:1032100082E20E94D61577CF3F924F925F926F92D3
:103220007F928F929F92AF92BF92CF92DF92EF9256
:10323000FF920F931F93CF93DF93CDB7DEB72B97FA
:103240000FB6F894DEBF0FBECDBF7C01DC01159632
:103250008C91811115C0FE013196CE010C966F0143
:1032600030E23193E817F907E1F7DA0130E087E05F
:103270009D91B92E992329F19E3239F48A3011F4A7
:1032800080E0DAC038E08AE0F3CFE5EAF4E0449188
:10329000442321F031969413FACFF2CF831780F3B1
:1032A0004FED490F4E3560F74FE9490F4A3118F499
:1032B00040EEB42EB90EF601E30FF11DB0823F5F70
:1032C000D7CF89818032E1F2322E8B01FB01838DD1
:1032D000948DD7015C969C938E935B971682178290
:1032E000108611861286138614861586F80182854B
:1032F0009385A485B5854389548965897689841722
:103300009507A607B70708F04DC025E0B695A79525
:10331000979587952A95D1F7F82FFF70AF2ED80192
:1033200015968C91823008F4ABCFC8010E94E81347
:1033300097FDA6CFF80182859385A485B5854F9624
:10334000A11DB11D82879387A487B587F0E2AF9E48
:10335000B0011124655B7D4F6115710509F490CFB3
:10336000DB018C91882341F0853E09F058C0BB20D9
:1033700029F0BB24B394BACFB1100EC0F701A28AD2
:103380008091010190910201A0910301B09104018B
:1033900086879787A08BB18BDB018C918111E9CF58
:1033A000BB24B394832D8271823109F069CFBB2095
:1033B00009F45AC0C7010E94100B009709F460CFAE
:1033C00020E2FC0111922A95E9F72BE0F601DC01DD
:1033D00001900D922A95E1F721E238E2DC01519645
:1033E0003C932E93509740E058E01F965C934E9389
:1033F0001E9753963C932E93529759963C932E9337
:10340000589757965C934E93569781E00E949B0A7B
:10341000882309F435CF432DF70162890AC04BE0B8
:1034200050E0C6010E94FB32892B09F05FCF432D8B
:103430006A2DC7010E9421152B960FB6F894DEBFA6
:103440000FBECDBFDF91CF911F910F91FF90EF90F5
:10345000DF90CF90BF90AF909F908F907F906F90B4
:103460005F904F903F900895F8018581823009F474
:1034700007CFC8010E94C80E882309F401CFD801E4
:103480005B96ED91FC915C9716968D909D90AD901A
:10349000BC901997B2E08B1A9108A108B1088585F4
:1034A00004C0880C991CAA1CBB1C8A95D2F786857F
:1034B0009785A089B189880E991EAA1EBB1E84819A
:1034C00024013501480E511C611C711C84149504A3
:1034D000A604B70409F1E1E04E1A51086108710829
:1034E00081E00E949B0A882309F4CACEEBE4F2E053
:1034F00011928BE494E08E179F07D1F7409201015F
:1035000050920201609203017092040180919E0129
:10351000816080939E01DACFD8015B96ED91FC919A
:10352000258580E092E0A0E0B0E004C0880F991FFC
:10353000AA1FBB1F2A95D2F7F801438954896589D0
:103540007689840F951FA61FB71F838B948BA58B3D
:10355000B68BD70152961C928BE492E031CF5F92EA
:103560006F927F928F929F92AF92BF92CF92DF9293
:10357000EF92FF920F931F93CF93DF93CDB7DEB7F8
:10358000C754D1090FB6F894DEBF0FBECDBF5C01A2
:103590003B0119A218A28FE691E09F8F8E8F1BA28C
:1035A0001C821B829A8389831E8210E000E06E01D8
:1035B0008EE1C80ED11C84E1E82E85E0F82EF501DD
:1035C000E00FF11F80818F3211F40F5F1F4FD50183
:1035D000A00FB11FFE01FB9690E080E04F012D91FE
:1035E0002F3249F0222339F00F5F1F4F01962193AC
:1035F0008C309105A1F7880D991DFC011082F50111
:10360000E00FF11F80818F3211F40F5F1F4FF50122
:10361000E00FF11F508041E0511040E030E020E029
:10362000B401C701F3010995811121C0F4E1EF163E
:10363000F5E0FF06C1F480E0C95BDF4F0FB6F894F8
:10364000DEBF0FBECDBFDF91CF911F910F91FF90D5
:10365000EF90DF90CF90BF90AF909F908F907F9032
:103660006F905F900895C7010E946711E4CF5520C5
:1036700091F021E0A401B701C6010E940C19982E17
:1036800084E1E81685E0F80681F0C7010E94671121
:10369000911010C0D0CF94E1E91695E0F90619F029
:1036A000C7010E94671181E0C7CF992021F2FE0176
:1036B00031967F019E2D8F2D7601C92ED82E7FCF7A
:1036C0006BE77BE10C94AF1ACF93DF93EC01888119
:1036D00099810E94601B882359F068EA7BE1888108
:1036E00099810E94AF1A82E090E0DF91CF91089516
:1036F00084E090E0FACF1F93CF93DF93CDB7DEB78E
:103700006D970FB6F894DEBF0FBECDBFAB011C8224
:103710001B822FE631E03A8329831E8221E0BC011F
:10372000CE0101960E940C1911E081110CC010E02D
:10373000812F6D960FB6F894DEBF0FBECDBFDF911F
:10374000CF911F910895CE0101960E946711F0CF8D
:10375000CF93DF93CDB7DEB76D970FB6F894DEBF8A
:103760000FBECDBF442399F1AB01BC011C821B826B
:103770008FE691E09A8389831E8222E0CE01019632
:103780000E940C1981110EC090E081E0911101C0DE
:1037900080E06D960FB6F894DEBF0FBECDBFDF910F
:1037A000CF910895CE0101960E948E14882361F373
:1037B000CE0101960E94100B009731F325EEFC011B
:1037C00020831E8281E00E949B0A982FDECF81E039
:1037D000E0CFEF92FF920F931F93CF93DF93EC0113
:1037E0007B018A011B821A8288EE93E0A0E0B0E0A0
:1037F0008C839D83AE83BF838BE491E09983888320
:103800008DE190E00E9411319A8F898F009779F0B5
:103810002DE1F701DC0101900D922A95E1F74CE0D2
:1038200050E0B801CE010C960E942C33188EDF9127
:10383000CF911F910F91FF90EF9008952F923F929B
:103840004F925F926F927F928F929F92AF92BF92B0
:10385000CF92DF92EF92FF920F931F93CF93DF935C
:10386000CDB7DEB7C756D1090FB6F894DEBF0FBE8D
:10387000CDBF5C013B01A6964FAFA69719A218A237
:103880008FE691E09F8F8E8F1BA21C821B829A83F2
:1038900089831E824E018EE1880E911CC4010E9414
:1038A000E00D63018E010F5F1F4F240118016FE2CD
:1038B00070E0C6010E941133009709F459C0F60167
:1038C00020812F3271F4FFEFCF1ADF0A902F812F62
:1038D0008201492E582E942D852D2801092F182F4D
:1038E000E6CF8C198D3008F08CE0E82EF12CA70182
:1038F000B601CE01885A9F4F0E942C33E8E5F0E0D4
:10390000EC0FFD1FEE0DFF1D1082C8010E94671114
:1039100021E0AE01485A5F4FB201C8010E940C1964
:10392000811120C01EAE1DAE8FE691E09CAF8BAF23
:1039300021961FAE2197A896EEADFFADA8976E0E0B
:103940007F1EF3018081811120C0BE01655C7F4F25
:10395000C1010E9420134AE751E0B101C5010E9454
:10396000E91B31C0CE0CDF1CC2010E946711B3CF2E
:10397000C60186199709A8969FAF8EAFA897B20186
:10398000CE01CB960E942013D6CF19A218A28FE6A3
:1039900091E09F8F8E8F1BA221968FAD2197811171
:1039A0002DC0F5011382128288EE93E0A0E0B0E012
:1039B00084839583A683B7838BE491E0918380838E
:1039C000128E118E1486C501C959DF4F0FB6F894B7
:1039D000DEBF0FBECDBFDF91CF911F910F91FF9042
:1039E000EF90DF90CF90BF90AF909F908F907F909F
:1039F0006F905F904F903F902F900895A6962FADB7
:103A0000A697A301BE01655C7F4FC4010E940C19FB
:103A1000882339F2CE01CB960E946711A6968FAD0E
:103A2000A6978670863039F449A95AA96BA97CA952
:103A3000C4010E94340EB401C1010E942013A301ED
:103A40008CCFCF92DF92EF92FF920F931F93CF9381
:103A5000DF93CDB7DEB7E6970FB6F894DEBF0FBEA3
:103A6000CDBF7C018B016A011F8E1E8E88EE93E014
:103A7000A0E0B0E088A399A3AAA3BBA38BE491E044
:103A80009D8F8C8F1EAA1DAA18A689E090E046176C
:103A90005707A0F1C7010E94800381113EC0F701C2
:103AA000808191810E94601B81113AC0F701608181
:103AB000718147E1CE0101960E941E1CBE016F5F1D
:103AC0007F4FCE014C960E942D14CE014C960E9441
:103AD0007013882341F1C8010E947E16682FCE0121
:103AE0004C960E94D2130F5F1F4FC016D10698F755
:103AF000CE014C960E944E1782E090E0E6960FB6FB
:103B0000F894DEBF0FBECDBFDF91CF911F910F9113
:103B1000FF90EF90DF90CF90089586E090E0EECF99
:103B200088E090E0EBCF85E090E0E8CFEF92FF9265
:103B30000F931F93CF93DF93CDB7DEB7E6970FB602
:103B4000F894DEBF0FBECDBF7C018B011F8E1E8E91
:103B500088EE93E0A0E0B0E088A399A3AAA3BBA35A
:103B60008BE491E09D8F8C8F1EAA1DAA18A6C70119
:103B70000E94800381114DC0F701808191810E94D4
:103B8000601B882309F448C0F7016081718141E01E
:103B9000CE0101960E941E1CBE016F5F7F4FCE01B9
:103BA0004C960E942D14CE014C960E9470138111E8
:103BB00004C085E090E020C08701CE014C960E94B1
:103BC0008513892B99F0CE014C960E94FF13780142
:103BD000FFEFEF1AFF0A682FC8010E94B215E11427
:103BE000F10451F7CE014C960E944E17CE014C962F
:103BF0000E944E1782E090E0E6960FB6F894DEBF82
:103C00000FBECDBFDF91CF911F910F91FF90EF902D
:103C1000089586E090E0F0CF84E090E0EDCFCF9281
:103C2000DF92EF92FF920F931F93CF93DF9300D019
:103C300000D000D0CDB7DEB780911102882309F4FF
:103C40005DC080910B01882309F450C060E087E0DB
:103C50000E94F10482E092E00E947E16F82E8823F2
:103C600009F440C083E092E00E94D0168C0183E00A
:103C7000F81609F452C08F1528F082E0F81669F0A2
:103C800000E02BC084E0F81609F465C08FE7F81255
:103C9000F7CF81E08093EA01F3CFC8010E94D016EC
:103CA0007C01C80102960E94D016C80104960E94A9
:103CB000B31664E172E0CE0101960E941018B701BC
:103CC000CE0101960E94961D8C01CE0101960E94A4
:103CD000461702301105A1F20058602F82E092E0F1
:103CE0000E94B21561E087E00E94F10461E086E085
:103CF0000E94F10460E086E00E94F10426960FB66F
:103D0000F894DEBF0FBECDBFDF91CF911F910F9111
:103D1000FF90EF90DF90CF900895C8010E94D016D9
:103D20006C01C80102960E94D0167C01C80104965D
:103D30000E94B31664E172E0CE0101960E94101851
:103D4000A6014E0D5F1D41505109B601CE010196ED
:103D50000E94211DB9CFC8010E94B31664E172E030
:103D6000CE0101960E941018CE0101960E94641B9C
:103D7000ABCFEF92FF920F931F93CF93DF93CDB70B
:103D8000DEB78C01EDB6FEB6662319F081E08093B4
:103D90009A0180919A01E82FF0E0DF01AC5EBD4FFF
:103DA0009C918F5F9032B9F39C919C32A1F3282FA4
:103DB00030E0D901AC5EBD4F9C91903201F52E1BD5
:103DC0003F0BA9014F5F5F4F6DB77EB7641B750B4B
:103DD0000FB6F8947EBF0FBE6DBF6F5F7F4FAF0110
:103DE0004817A8F4DA01AC5EBD4F9C91DA01AE1B16
:103DF000BF0BA60FB71F9C934F5F5F4FF1CF9C91F6
:103E00009C32E9F29C919923D1F28F5FD0CF260F9B
:103E1000371FF901108280939A01C8010E9410187F
:103E2000C8010FB6F894FEBE0FBEEDBEDF91CF9174
:103E30001F910F91FF90EF9008954F925F926F92B4
:103E40007F929F92AF92BF92CF92DF92EF92FF92BA
:103E50000F931F93CF93DF93CDB7DEB7CB5CD10920
:103E60000FB6F894DEBF0FBECDBF69E771E0CE019B
:103E700086549F4F0E94101869E771E0CE0180546C
:103E80009F4F0E94101869E771E0CE018A539F4F3F
:103E90000E94101861E0CE0101960E94B91EBE0179
:103EA0006F5F7F4FCE0186549F4F0E940D17CE014A
:103EB00001960E944617C654DF4F08811981CA5BDC
:103EC000D0400115110571F0D8018D918D01882325
:103ED00049F0082E000C990B0E94F332F80131973B
:103EE0008083F2CFC254DF4F88819981CE5BD0406E
:103EF0000097B1F508E513E0F8016491662341F0FD
:103F00008BE494E00E9432040F5F1F4F892BA1F7CE
:103F10000E940517CE018A539F4F0E944617CE017B
:103F200080549F4F0E944617CE0186549F4F0E9497
:103F30004617C553DF4F0FB6F894DEBF0FBECDBF97
:103F4000DF91CF911F910F91FF90EF90DF90CF9075
:103F5000BF90AF909F907F906F905F904F9008952B
:103F6000C654DF4FE881F981CA5BD040309709F42D
:103F70005FC02081203309F05BC0029708F458C06D
:103F80008181883709F054C062E070E0CE01865428
:103F90009F4F0E94E41640E150E070E060E0C6549C
:103FA000DF4F88819981CA5BD0400E949A2E6B01B5
:103FB00060E0CE0101960E94B91EBE016F5F7F4F87
:103FC000CE0180549F4F0E940D17CE0101960E9492
:103FD0004617F12C11E0CE0180549F4F0E948003C0
:103FE00081119FC0C054DF4F88819981C05CD0404F
:103FF000CC53DF4F28813981C45CD040232B39F06A
:10400000009729F0DC012C91233209F456C040E1DD
:1040100050E070E060E00E949A2E062FC6010E94D8
:104020007E16801799F1602FC6010E94B215F6CF57
:1040300063E573E0CE0101960E942518BE016F5F13
:104040007F4FCE0186549F4F0E945E14182FCE01E1
:1040500001960E9446171111D2C06FE473E0CE01A1
:1040600001960E942518BE016F5F7F4FCE018654D6
:104070009F4F0E945E14182FCE0101960E94461792
:10408000112309F457C10E94331650C1100FF10ECD
:10409000BFEFCB1ADB0A60E0CE0101960E94B91E89
:1040A000BE016F5F7F4FCE0180549F4F0E940D175E
:1040B000CE0101960E9446178ECF61E070E0CE01DE
:1040C00080549F4F0E94E41640E150E070E060E0B1
:1040D000C054DF4F88819981C05CD0400E949A2EE5
:1040E0006B01912F8F2D8C159D05A9F2BE01665491
:1040F0007F4FCE0101960E94BD17AE014F5F5F4F0B
:104100006AE18CE10E94D615CE0101960E94461705
:1041100042E350E060E070E082E390E00E945B05E3
:10412000BACF82E00E945E18BE0166547F4FCE0176
:1041300001960E94BD17AE014F5F5F4F6BE18CE1AE
:104140000E94D615CE0101960E944617C254DF4F39
:1041500048815981CE5BD040C654DF4F6881798158
:10416000CA5BD0408BE494E00E94920360E28BE44F
:1041700094E00E943204912F8F2DB0E0A0E019A2AC
:10418000FE01B196AC01BD014F7055276627772718
:1041900014E0B695A795979587951A95D1F74A306B
:1041A00064F5405D42930097A105B10559F730973A
:1041B00069F0DF010D900020E9F71197AD014E1B6A
:1041C0005F0BBF018BE494E00E9492030E940517ED
:1041D0008091110281119ECE90E080E0FC01EC5EA6
:1041E000FD4F2081FC01E551FE4F20830196863270
:1041F0009105A1F70E9459168DCE495CD3CF0E943C
:10420000331660E0CE0101960E94B91EBE016F5FB9
:104210007F4FCE0186549F4F0E940D17CE0101960D
:104220000E944617BE0166547F4FCE01CF960E9472
:10423000BD17CE01CF960E94800310E000E08111EF
:104240000BC040E150E070E060E021968EAD9FAD84
:1042500021970E949A2E8B01F2E0FF2E6CE771E00D
:10426000CE0101960E941018AE014F5F5F4F6F2D77
:1042700083E00E94D615CE0101960E9446171BA22C
:104280001AA21DA21CA21FA21EA240E1BE016F5FC6
:104290007F4FC8010E942830BE016F5F7F4FCE0163
:1042A00082960E94B317AE014E5D5F4F6F2D85E081
:1042B0000E94D615CE0182960E944617C801ECE0F6
:1042C000EE2E6C01EFEFCE1ADE0A0E947E161BA2C4
:1042D0001AA21DA21CA21FA21EA240E1BE016F5F76
:1042E0007F4F90E00E942830BE016F5F7F4FCE016C
:1042F00082960E94B317AE014E5D5F4F6F2D8E2DDB
:104300000E94D615CE0182960E944617F3E0EF0E6A
:10431000C60124E2E212D5CF085F1F4FF39489E172
:10432000F8129CCFCE01CF960E94461782E00E94E1
:104330005E184ECF67E473E0CE0101960E94251807
:10434000BE016F5F7F4FCE0186549F4F0E945E1467
:10435000182FCE0101960E9446171123B9F10E9431
:104360003316F12C10E000E076E2C72ED12C6F2D31
:10437000C8010E94B215C8010E947E16682F58011C
:1043800090E8B91AC5010E94B215C5010E947E16B7
:10439000282FC801B6010E94D830CB010197880FA1
:1043A000991F622F9801255D3740820F931F0E944D
:1043B000B215AFEFFA1641F0F3940F5F1F4F0A36B4
:1043C000B3E01B07A1F6B2CFF12CF7CF62E473E0A4
:1043D000CE0101960E942518BE016F5F7F4FCE016E
:1043E00086549F4F0E945E14182FCE0101960E94A2
:1043F0004617112339F01092050160E085E00E9414
:10440000F10494CF6EE373E0CE0101960E9425186B
:10441000BE016F5F7F4FCE0186549F4F0E945E1496
:10442000182FCE0101960E944617112329F081E032
:104430008093050161E0E2CF68E373E0CE0101966D
:104440000E942518BE016F5F7F4FCE0186549F4F9B
:104450000E945E14182FCE0101960E944617112368
:1044600021F081E08093EA01B3CE63E373E0CE01F3
:1044700001960E942518BE016F5F7F4FCE018654C2
:104480009F4F0E945E14182FCE0101960E9446177E
:10449000112341F061E089E00E94F10481E0809302
:1044A000000144CF6EE273E0CE0101960E94251810
:1044B000BE016F5F7F4FCE0186549F4F0E945E14F6
:1044C000182FCE0101960E944617112339F060E0A3
:1044D00089E00E94F1041092000128CF6AE273E0A3
:1044E000CE0101960E942518BE016F5F7F4FCE015D
:1044F00086549F4F0E945E14182FCE0101960E9491
:104500004617112309F488C1CC56DF4F198218824F
:10451000C459D04048EE53E060E070E0CA56DF4F27
:10452000488359836A837B83C659D0408BE491E0EA
:10453000CE56DF4F99838883C259D040C555DF4F8F
:1045400019821882CB5AD040C256DF4F1882CE59FA
:10455000D040EB961FAE1EAEEB97EF964CAF5DAF23
:104560006EAF7FAFEF97E9969FAF8EAFE997C057D9
:10457000DF4F19821882C059D040CD57DF4F1882C3
:10458000C358D0400E94331641E06AE771E0CE0183
:1045900001960E941E1CBE016F5F7F4FCE018E569A
:1045A0009F4F0E942D1492E0992E28EE422E23E078
:1045B000522E612C712C3BE4E32E31E0F32E4FE6BA
:1045C000C42E41E0D42E57E7A52EB12CAC0EBD1E53
:1045D000ECE0AE0EB11CC555DF4F08811981CB5AF6
:1045E000D040D80115968C911597823008F491C06F
:1045F0001A968D919D910D90BC91A02D8F71992748
:10460000AA27BB27892B8A2B8B2B09F082C040E27B
:1046100050E0BE016F5F7F4FC8010E94C80F80321B
:1046200009F077C08981882309F473C0853E79F346
:104630008E3269F38C8583FDEACF23961FAE1EAEC2
:1046400023972196DFAECEAE219725961FAE2597F4
:10465000BE016F5F7F4FE0E080E04EE2DB019D91A5
:10466000BD019032A1F0883049F42DEA30E02C0FE2
:104670003D1F2E0F311DD9014C93EF5F2DEA30E025
:104680002C0F3D1F2E0F311DD9019C93EF5F8F5FC3
:104690008B3021F78DEA90E08C0F9D1F8E0F911DBE
:1046A000FC011082C555DF4F68817981CB5AD0401B
:1046B00021E0AE0143555F4FCE01CF960E940C1909
:1046C000882339F1BE01615C7F4FCE0182960E9442
:1046D0002013AE0143555F4FBE016E5D7F4FCE018B
:1046E000845A9F4F0E94E91BBE01645A7F4FCE013E
:1046F00089589F4F0E942D14CE0189589F4F0E94C8
:10470000701381111CC0CE018E569F4F0E944E1710
:104710000DCEA0961FAE1EAEA097A4964CAE5DAE79
:104720006EAE7FAEA4976E96FFAEEEAE6E97E79636
:104730001FAE1EAEE797A9961FAEA997D5CFB501BC
:10474000CE0101960E941018AE014F5F5F4F692D98
:1047500083E00E94D615CE0101960E944617C057ED
:10476000DF4FE881F981C059D04060E070E0CB01B3
:10477000309721F063897489858996891BA21AA2D2
:104780001DA21CA21FA21EA22AE0AE014F5F5F4F16
:104790000E940630BE016F5F7F4FCE0182960E945D
:1047A000B317AE014E5D5F4F692D84E10E94D615AF
:1047B000CE0182960E944617CE0189589F4F0E94D3
:1047C0004E1797E1991510F0939405CF87E00E945A
:1047D0005E1812E040E26DE1812F0E94C4151F5F58
:1047E0001832C1F70E9442088823E1F30E941F0893
:1047F00045E050E060E070E04B9729F48EEE92E0E7
:104800000E945B0580CF8EEE92E00E945B050E94C5
:10481000331682E0982EDFCE66E273E0CE01019679
:104820000E942518BE016F5F7F4FCE0186549F4FB7
:104830000E945E14182FCE0101960E944617112384
:1048400071F160E0CE0101960E94B91EBE016F5F5A
:104850007F4FCE0186549F4F0E940D17CE010196C7
:104860000E944617BE0166547F4FCE0182960E9479
:10487000BD17BE016E5D7F4FCE0101960E94BD1730
:10488000CE0101960E94641B0E945E18CE01019623
:104890000E944617CE0182960E94461799CC61E28B
:1048A00073E0CE0101960E942518BE016F5F7F4F15
:1048B000CE0186549F4F0E945E14182FCE010196A0
:1048C0000E944617112309F45EC060E0CE010196F4
:1048D0000E94B91EBE016F5F7F4FCE0186549F4F6D
:1048E0000E940D17CE0101960E94461760E0CE018E
:1048F00001960E94B91EBE016F5F7F4FCE018054AA
:104900009F4F0E940D17CE0101960E944617BE01CF
:1049100060547F4FCE01CF960E94BD17BE016654F2
:104920007F4FCE0182960E94BD17CE01CF960E9486
:10493000800305E012E081110BC040E150E070E01F
:1049400060E021968EAD9FAD21970E949A2E8B013B
:10495000BE016E5D7F4FCE0101960E94BD17B8016A
:10496000CE0101960E94961D182FCE0101960E943D
:104970004617812F0E945E18CE0182960E9446172C
:10498000CE01CF9689CF6DE173E0CE0101960E94F2
:104990002518BE016F5F7F4FCE0186549F4F0E9446
:1049A0005E14182FCE0101960E944617112309F4B8
:1049B00080C090E080E0FC01EC5EFD4F2081FC01B6
:1049C000E551FE4F2083019686329105A1F70E94A2
:1049D0006E1660E080E092E00E94B21560E081E037
:1049E00092E00E94B21560E082E092E00E94B2156F
:1049F00080910501811145C060EB8AEF9FEF0E9415
:104A0000B2156CEF8BEF9FEF0E94B21560E480EB64
:104A10009CEF0E94B21565E08CEF9FEF0E94B215EB
:104A200062E08DEF9FEF0E94B21511E0109311022A
:104A300061E088E00E94F10461E087E00E94F104F7
:104A400062E370E080E090E00E945F0760E088E051
:104A50000E94F10480E1809381001092800080E246
:104A60009EE4909387008093860082E1809381008A
:104A70008FE09EE19093DA018093D90110936F004B
:104A8000A7CB6DEE86E690E00E94B21565E487E65E
:104A900090E00E94B21563EC90E080E00E94B215B5
:104AA00065E081E090E00E94B21562E082E090E073
:104AB000BACF68E173E0CE0101960E942518BE01CD
:104AC0006F5F7F4FCE0186549F4F0E945E14182F58
:104AD000CE0101960E944617112309F48FC060E0B1
:104AE000CE0101960E94B91EBE016F5F7F4FCE01BD
:104AF00086549F4F0E940D17CE0101960E944617C3
:104B000060E0CE0101960E94B91EBE016F5F7F4F2B
:104B1000CE0180549F4F0E940D17CE0101960E9436
:104B2000461760E0CE0101960E94B91EBE016F5F7C
:104B30007F4FCE018A539F4F0E940D17CE010196E1
:104B40000E944617BE0160547F4FCE01845A9F4F8A
:104B50000E94BD17BE0166547F4FCE01CF960E94C2
:104B6000BD17BE016A537F4FCE0182960E94BD17CA
:104B7000CE01CF960E948003882381F016E0812F1A
:104B80000E945E18CE0182960E944617CE01CF96F3
:104B90000E944617CE01845A9F4F7ECE40E150E0DE
:104BA00070E060E021968EAD9FAD21970E949A2E15
:104BB0006B01CE01845A9F4F0E9480038111DECF8A
:104BC00040E150E070E060E06E968EAD9FAD6E9774
:104BD0000E949A2E2B01BE016E5D7F4FCE01019681
:104BE0000E94BD17A201B601CE0101960E94211DAF
:104BF000182FCE0101960E944617C1CF63E173E0E2
:104C0000CE0101960E942518BE016F5F7F4FCE0135
:104C100086549F4F0E945E14182FCE0101960E9469
:104C20004617112309F4A0C060E0CE0101960E944E
:104C3000B91EBE016F5F7F4FCE0186549F4F0E9409
:104C40000D17CE0101960E94461760E0CE01019635
:104C50000E94B91EBE016F5F7F4FCE0180549F4FEF
:104C60000E940D17CE0101960E94461760E0CE010A
:104C700001960E94B91EBE016F5F7F4FCE018A531D
:104C80009F4F0E940D17CE0101960E944617BE014C
:104C90006A537F4FCE01CF960E94BD17BE0160546C
:104CA0007F4FCE0182960E94BD17BE0166547F4F92
:104CB000CE0101960E94BD17CE0101960E9480038D
:104CC000882341F086E00E945E18CE0101960E9482
:104CD000461752CE40E150E070E060E089819A8151
:104CE0000E949A2E2B017B01CE0182960E948003A6
:104CF0008111E8CF40E150E070E060E08AA19BA123
:104D00000E949A2E8B01CE01CF960E9480038111C2
:104D1000D9CF40E150E070E060E021968EAD9FADCC
:104D200021970E949A2E0415150510F489E0CBCF27
:104D30000617170718F064157505C0F7DB01AE19E3
:104D4000BF097D016701C40CD51CC2010E947E16FB
:104D5000682FC6010E94B215BFEF4B1A5B0A0415FB
:104D6000150580F782E0AFCF6EE073E0CE0182964A
:104D70000E942518BE016E5D7F4FCE0186549F4F65
:104D80000E945E1411E0811116C06CE073E0CE0148
:104D900001960E942518BE016F5F7F4FCE01865499
:104DA0009F4F0E945E1411E0811101C010E0CE01FE
:104DB00001960E944617CE0182960E94461783E014
:104DC000112309F4B4CA0E94331668EE72E0CE01D2
:104DD00001960E942518AE014F5F5F4F62E083E0AD
:104DE0000E94D615CE0101960E9446176CEC72E027
:104DF000CE0101960E942518AE014F5F5F4F63E020
:104E000083E00E94D615CE0101960E94461769EAFA
:104E100072E0CE0101960E942518AE014F5F5F4FF0
:104E200064E083E00E94D615CE0101960E944617E9
:104E300068E872E0CE0101960E942518AE014F5F2E
:104E40005F4F66E083E00E94D615CE0101960E9476
:104E5000461766E672E0CE0101960E942518AE0163
:104E60004F5F5F4F67E083E00E94D615CE01019649
:104E70000E9446176FE472E0CE0101960E94251849
:104E8000AE014F5F5F4F68E083E00E94D615CE0110
:104E900001960E9446176DE272E0CE0101960E94D3
:104EA0002518AE014F5F5F4F69E083E00E94D61581
:104EB000CE0101960E9446176DE072E0CE01019688
:104EC0000E942518AE014F5F5F4F6AE083E00E94A9
:104ED000D615CE0101960E9446176FEE71E0CE0105
:104EE00001960E942518AE014F5F5F4F6BE083E093
:104EF0000E94D615CE0101960E94461763ED71E01F
:104F0000CE0101960E942518AE014F5F5F4F6CE005
:104F100083E00E94D615CE0101960E94461767EBEA
:104F200071E0CE0101960E942518AE014F5F5F4FE0
:104F30006DE083E00E94D615CE0101960E944617CF
:104F40006EE971E0CE0101960E942518AE014F5F17
:104F50005F4F6EE083E00E94D615CE0101960E945D
:104F6000461761E871E0CE0101960E942518AE0156
:104F70004F5F5F4F6FE083E00E94D615CE01019630
:104F80000E9446176AE671E0CE0101960E9425183C
:104F9000AE014F5F5F4F60E183E00E94D615CE0106
:104FA00001960E94461767E471E0CE0101960E94C7
:104FB0002518AE014F5F5F4F61E183E00E94D61577
:104FC000CE0101960E94461763E271E0CE01019680
:104FD0000E942518AE014F5F5F4F62E183E00E949F
:104FE000D615CE0101960E94461767E071E0CE010A
:104FF00001960E942518AE014F5F5F4F63E185E087
:105000000E94D615CE0101960E9446176AEE70E006
:10501000CE0101960E942518AE014F5F5F4F64E1FB
:1050200083E00E94D615CE0101960E94461766ECD9
:1050300070E0CE0101960E942518AE014F5F5F4FD0
:1050400065E183E00E94D615CE0101960E944617C5
:1050500064EA70E0CE0101960E942518AE014F5F10
:105060005F4F66E185E00E94D615CE0101960E9451
:10507000461763E870E0CE0101960E942518AE0144
:105080004F5F5F4F67E183E00E94D615CE01019626
:105090000E94461768E670E0CE0101960E9425182E
:1050A000AE014F5F5F4F68E183E00E94D615CE01ED
:1050B00001960E9446178AE03AC91F920F920FB6D6
:1050C0000F9211242F933F934F935F936F937F938E
:1050D0008F939F93AF93BF93EF93FF9380913F0282
:1050E00090914002A0914102B0914202892B8A2BFB
:1050F0008B2BD1F190913A02E0913B02F0913C026E
:1051000080818927808380913F0290914002A09105
:105110004102B0914202181619061A061B069CF4A9
:1051200080913F0290914002A0914102B0914202D1
:105130000197A109B10980933F0290934002A09387
:105140004102B0934202FF91EF91BF91AF919F91C5
:105150008F917F916F915F914F913F912F910F9020
:105160000FBE0F901F90189580910C01E9EAF6E0B0
:10517000E4919FEF90930C01E13051F030F0E23078
:1051800069F060E00E94F104DECF10926E00F9CF6A
:1051900090916F009D7F90936F00F3CF909170007E
:1051A0009D7F9093700091E09093B0009091B1003A
:1051B000987F94609093B1001092B300E2CF1F9259
:1051C0000F920FB60F9211242F933F934F935F933B
:1051D0006F937F938F939F93AF93BF93EF93FF93BF
:1051E0008BE494E00E941004FF91EF91BF91AF9186
:1051F0009F918F917F916F915F914F913F912F91EF
:105200000F900FBE0F901F9018951F920F920FB620
:105210000F9211242F938F939F93EF93FF93E0911D
:105220005B04F0915C048081E0916104F091620480
:1052300082FD1BC09081809164048F5F8F732091E9
:105240006504821741F0E0916404F0E0E55BFB4FF8
:10525000958F80936404FF91EF919F918F912F918F
:105260000F900FBE0F901F9018958081F4CF1F9262
:105270000F920FB60F9211242F933F938F939F930A
:10528000AF93BF938091DC019091DD01A091DE018D
:10529000B091DF013091DB0123E0230F2D3758F56A
:1052A0000196A11DB11D2093DB018093DC01909339
:1052B000DD01A093DE01B093DF018091E0019091C8
:1052C000E101A091E201B091E3010196A11DB11DA0
:1052D0008093E0019093E101A093E201B093E30198
:1052E000BF91AF919F918F913F912F910F900FBEE2
:1052F0000F901F90189526E8230F0296A11DB11D4F
:10530000D2CF1F920F920FB60F9211242F933F937B
:105310004F935F936F937F938F939F93AF93BF93BD
:10532000EF93FF93E0910801F09109010995FF9136
:10533000EF91BF91AF919F918F917F916F915F910D
:105340004F913F912F910F900FBE0F901F90189586
:105350001F920F920FB60F9211242F933F934F93EA
:105360005F936F937F938F939F93AF93BF93EF93CD
:10537000FF93E0910601F09107010995FF91EF91EC
:10538000BF91AF919F918F917F916F915F914F915D
:105390003F912F910F900FBE0F901F9018951F9265
:1053A0000F920FB60F9211242F933F934F935F9359
:1053B0006F937F938F939F93AF93BF93EF93FF93DD
:1053C000E091D901F091DA010995FF91EF91BF9138
:1053D000AF919F918F917F916F915F914F913F918D
:1053E0002F910F900FBE0F901F901895EBE4F4E0F3
:1053F0001382128288EE93E0A0E0B0E0848395836C
:10540000A683B7838DE591E09183808385EC90E05E
:105410009587848784EC90E09787868780EC90E07E
:10542000918B808B81EC90E0938B828B82EC90E06F
:10543000958B848B86EC90E0978B868B118E128EE9
:10544000138E148EE8EEF4E080E580831182EAEE9C
:10545000F4E0158216821186138682E090E0A0E0C7
:10546000B0E084879587A687B78713A215A614A6F0
:105470008FE691E093A782A717A60895CF93DF93B5
:10548000CDB7DEB7A3970FB6F894DEBF0FBECDBF82
:10549000789484B5826084BD84B5816084BD85B50F
:1054A000826085BD85B5816085BD80916E0081601B
:1054B00080936E00109281008091810082608093C1
:1054C00081008091810081608093810080918000C3
:1054D0008160809380008091B10084608093B100EE
:1054E0008091B00081608093B00080917A008460E8
:1054F00080937A0080917A00826080937A00809114
:105500007A00816080937A0080917A00806880932D
:105510007A001092C10061E082E10E941F0560E004
:1055200083E10E941F0561E081E10E941F0561E0A7
:1055300080E10E941F0561E08EE00E941F0561E08E
:105540008FE00E941F0561E089E00E941F0562E074
:1055500082E00E941F0562E083E00E941F0561E077
:1055600085E00E941F0561E086E00E941F0561E062
:1055700087E00E941F0561E088E00E941F0561E04E
:1055800084E00E941F0561E08FE00E94F10460E06A
:1055900082E10E94F10460E080E10E94F10460E099
:1055A0008EE00E94F10460E081E10E94F10461E07C
:1055B00089E00E94F10461E085E00E94F10460E06E
:1055C00086E00E94F10460E087E00E94F10460E060
:1055D00088E00E94F10460E088E00E94F10460E04D
:1055E00085E00E94F10461E087E00E94F10462E33B
:1055F00070E080E090E00E945F0761E088E00E9438
:10560000F10460E087E00E94F10462E370E080E072
:1056100090E00E945F0760E088E00E94F10461E092
:1056200085E00E94F10461E087E00E94F10462E3FA
:1056300070E080E090E00E945F0761E088E00E94F7
:10564000F10460E087E00E94F10462E370E080E032
:1056500090E00E945F0760E088E00E94F104809182
:105660000501811104C060E085E00E94F1040E9400
:10567000591690E080E0FC01EC5EFD4F2081FC01BA
:10568000E551FE4F2083019686329105A1F7E09106
:105690005B04F0915C0482E08083E0915704F09118
:1056A00058041082E0915904F0915A048FEC8083E1
:1056B00010926304E0915F04F091600486E08083BF
:1056C000E0915D04F0915E04808180618083E091CF
:1056D0005D04F0915E04808188608083E0915D04C8
:1056E000F0915E04808180688083E0915D04F09198
:1056F0005E0480818F7D808383E08093E8018DED5F
:1057000094E09093E7018093E60162E082E00E94DA
:105710001F0562E083E00E941F051092E5011092D0
:10572000E40186E598E0909307018093060180915B
:1057300069008C7F826080936900E89A80911905E6
:10574000882321F084E195E00E9467111092F5040E
:105750001092F3041092F0041092EF048AE0809308
:10576000EE040E9491078B0161E08091EE040E949B
:105770001F0561E08091EE040E94F104FFB6F894E9
:105780008091E901811127C0EFE9F6E08491E1E819
:10579000F6E09491E82FF0E0EE0FFF1FED52FB4F83
:1057A000A591B491EC91E92321F461E08AE00E9493
:1057B000F10461E08AE00E941F058CB580618CBD18
:1057C0008CB580648CBD61E08DE00E941F0561E0B6
:1057D0008BE00E941F058091E9018F5F8093E901B2
:1057E000FFBE82E58093E8041092E9048091E8040A
:1057F0009091E9040E94F1083AE0F32E8FEF0E94A5
:10580000CC08FA94F110FACF8AEE94E00E94F408E2
:1058100020E030E0A90160E08AEE94E00E940A09ED
:10582000F82E8093F40481E0F816E9F00E949107C5
:10583000601B710B613D774058F381E08093EF046A
:105840008AEE94E00E94C10846E950E060E070E012
:1058500082E390E00E945B0564EF71E080E090E0FD
:105860000E945F07F1CF2AEA31E040E050E068E0B3
:105870008AEE94E00E940A0982FF2AC0F092F504A1
:105880008091F504C12CD12C7601823029F4C12CF1
:10589000D12CE12C90E4F92E20E030E0A90167E35F
:1058A0008AEE94E00E940A09A701960169E28AEE55
:1058B00094E00E940A098093F4048823D1F00E94A6
:1058C0009107601B710B613D774030F388E0B6CFE4
:1058D00024E0F22E0E94D3088093F404FA94F1108D
:1058E000F9CF8A3A11F082E0A9CF82E08093F504E3
:1058F000C7CF8091F5048230D1F420E030E0A901D7
:105900006AE38AEE94E00E940A09882311F086E097
:1059100095CF0E94D308807C803C19F483E080936B
:10592000F5040E94D3080E94D3080E94D3088AEE8F
:1059300094E00E94C10880E58093E8041092E90495
:1059400081E00E94290B882309F4E5C084E195E0F9
:105950000E94E00D882309F477CF8FE791E00E9441
:10596000601B8111DFC046E950E060E070E082E337
:1059700090E00E945B050E946E160E940F168CE854
:1059800091E00E94601B8111F7C046E950E060E0A1
:1059900070E082E390E00E945B0581E00E945E1867
:1059A00064EF71E080E090E00E945F0742E350E026
:1059B00060E070E085E091E00E945B0566E970E0E0
:1059C00080E090E00E945F0742E350E060E070E01A
:1059D00085E191E00E945B0566E970E080E090E07F
:1059E0000E945F0742E350E060E070E085E091E0F4
:1059F0000E945B0566E970E080E090E00E945F072E
:105A000044EF51E060E070E08DE591E00E945B05BD
:105A10006AEF70E080E090E00E945F0742E350E0B0
:105A200060E070E085E091E00E945B0566E970E06F
:105A300080E090E00E945F0744E853E060E070E09F
:105A40008DE591E00E945B0568EE73E080E090E0F8
:105A50000E945F0780E00E945E180E94451600E2E7
:105A6000D12CC12C80E0E82E80E0F82EBB24B3942A
:105A70000E944208882309F4D7C00E941F08182FEB
:105A800045E050E060E070E08EEE92E00E945B0541
:105A900080911102811102C00E945E1811160CF053
:105AA000E7C010920B0180911102882309F4F2C023
:105AB000113009F0C5C01092110210926F0061E020
:105AC00088E00E94F10460E087E00E94F10462E354
:105AD00070E080E090E00E945F0760E088E00E9454
